:060000000A128A11E32F31
:100CAC00703461347334733477346F347234643425
:100CBC0000347E088A007F0882005F260A128A119F
:100CCC008000840A04087D0603190034FF0A031906
:100CDC00FE0A632EF5007C2E0130F2007208F50737
:100CEC000130F0070318F10A0030F1077508840091
:100CFC0083130008F200700884008317711C83139F
:100D0C000003FF3A7207F3007308F400F408031DA4
:100D1C00952E7508840083138008031D722E7408A9
:100D2C00F000F101F01BF103080045344E3454344B
:100D3C0045345234203454344834453420345034FF
:100D4C0041345334533457344F34523444340D34C7
:100D5C000A3400340D340A344134433443344534BA
:100D6C005334533420344734523441344E34543495
:100D7C00453444340D340A3400340D340A345434BC
:100D8C0052345934203441344734413449344E348C
:100D9C000D340A3400342430831603139800903039
:100DAC008312031398001930831603139900203013
:100DBC008400A030F6000408F7001530F80076081F
:100DCC00840083130008F900F60A77088400790878
:100DDC008000F70AF80BE52E563084006130F600DF
:100DEC000408F7000930F800760884008313000823
:100DFC00F900F60A7708840079088000F70AF80BE6
:100E0C00FA2E35308400B530F6000408F7001330A4
:100E1C00F8007608840083130008F900F60A7708B6
:100E2C00840079088000F70AF80B0F2F48308400F3
:100E3C00C830F6000408F7000E30F800760884007D
:100E4C0083130008F900F60A7708840079088000FB
:100E5C00F70AF80B242F8312DF01E0015F08203E14
:100E6C0084008313800803194D2F5F08203E8400F3
:100E7C000008990083160313981C402F013083122D
:100E8C000313DF070318E00A0030E007342FDF01FB
:100E9C00E0015D2F2A30990083160313981C522F02
:100EAC0001308312DF070318E00A0030E0078C1EC4
:100EBC005D2F2030F6000030F7005F087607F80051
:100ECC0060080318600A7707F90078088400831318
:100EDC00791883171A0880002030F6000030F700CC
:100EEC005F087607F80060080318600A7707F900B6
:100EFC00780884008317791C831300080D3A031DAE
:100F0C00502F2030F6000030F7005F087607F8000D
:100F1C0060080318600A7707F900780884008317C3
:100F2C00791C831380012030F0000030F100563022
:100F3C000A128A1170260A128A1171087004031D94
:100F4C00C52F83120313DF01E0015F08353E8400D7
:100F5C00831380080319312F5F08353E84008313F7
:100F6C000008990083160313981CB82F01308312C4
:100F7C000313DF070318E00A0030E007AB2F8312DE
:100F8C000313DF01E0015F08483E840083138008EF
:100F9C000319312F5F08483E840083130008990021
:100FAC0083160313981CD62F013083120313DF070B
:100FBC000318E00A0030E007C92F8313D630FD0078
:100FCC000630FE009B30FF00A03084000A128A110C
:100FDC0063260A128A116A30FD000630FE00563074
:100FEC00FF00613084000A128A11632683010A1201
:040FFC008A11D12E57
:02400E0039FF78
:00000001FF
