:020000040000FA
:1000000060020010590100005D0100005F01000066
:1000100061010000630100006501000000000000B4
:100020000000000000000000000000006701000068
:1000300069010000000000006B0100006D0100007C
:100040006F0100006F0100006F0100006F010000F0
:100050006F0100006F0100006F0100006F010000E0
:100060006F0100006F0100006F0100006F010000D0
:100070006F0100006F0100006F0100006F010000C0
:100080006F0100006F0100006F0100006F010000B0
:100090006F0100006F0100006F0100006F010000A0
:1000A0006F0100006F0100006F0100006F01000090
:1000B0006F0100006F0100006F0100006F01000080
:1000C0006F0100006F0100006F01000000F002F8F6
:1000D00000F033F80AA090E8000C82448344AAF1AF
:1000E0000107DA4501D100F028F8AFF2090EBAE8AD
:1000F0000F0013F0010F18BFFB1A43F0010318475C
:10010000D4030000E403000000230024002500269F
:10011000103A28BF78C1FBD8520728BF30C148BF6A
:100120000B607047642900F0EB80002070471FB51A
:1001300000F0C8F91FBD10B510BD00F08FF91146D1
:10014000FFF7F5FF00F032F800F0D1F803B4FFF745
:10015000F2FF03BC00F0B0F908480047FEE7FEE7F5
:10016000FEE7FEE7FEE7FEE7FEE7FEE7FEE7FEE767
:1001700003480449024A044B70470000CD000000C8
:10018000600000106002001060000010002109E013
:10019000425C234B1A7000BF214A127D12F0400FBF
:1001A000FAD0491C425C002AF2D170471FB50020EA
:1001B0001C4908601C49C1F8800041F208001B4935
:1001C00008601B481B49086044F250001A49086047
:1001D0004FF08300124908734FF01A0008704FF077
:1001E0000300087315481649086017E014480068B2
:1001F00040F080701249086000BF1148406810F05C
:10020000004FFAD00E484068C0F30B1422460DA1EF
:10021000684600F01BF86846FFF7B8FFE6E7000005
:1002200000C000400CC10F4000C00F40C4C00F40D0
:1002300040000001A8C10F4000C0024001002000A2
:1002400000400340414443303D2564000FB41CB5D9
:10025000074B06AA7B4469460090059800F0EBF82E
:100260000020694600F03EF81CBC5DF814FB00005D
:100270008D0000002DE9F04104460E4600200AE002
:10028000E1682046884738B3252806D0D4E9012103
:100290009047206A401C2062F2E7E1682046002770
:1002A0008847050018D0A5F14100192802D820354B
:1002B0004FF400673246294620462760FFF732FF99
:1002C00040B1012804D0F61D26F007060836D7E70E
:1002D000361DD5E72846D9E7206ABDE8F08170478A
:1002E000704770470A6802F8010B0A6070470446BD
:1002F000AFF300802046FFF729FF7047FFFFFFFFA5
:100300002DE9F0410746002510687529394616A4E5
:1003100011D0AFF30080002803DAC0F1000013A46D
:1003200007E039688A0701D511A402E0490704D51E
:1003300010A4012501E0AFF3008000210A2307F19A
:10034000240607E0B0FBF3F203FB120030307054D8
:100350001046491C0028F5D12B4622463846BDE8F8
:10036000F04100F009B80000000000002D0000007E
:100370002B000000200000002DE9F0470D46044648
:100380009246994600F124080168880604D5E06980
:1003900021F01001216000E001200027A84201DDCA
:1003A000A0EB0507A16907EB050202EB0300A1EB37
:1003B0000000A0612068C00602D42046AFF3008090
:1003C000002608E0D4E901211AF806009047206AC7
:1003D000401C761C20624E45F4DB2068C0060AD51E
:1003E0002046AFF3008006E0D4E901213020904799
:1003F000206A401C2062381EA7F10107F4DC07E0E8
:10040000D4E9012118F805009047206A401C2062B9
:10041000281EA5F10105F3DC2046AFF3008021681A
:100420000220090600D40120BDE8F08701694A1CBA
:1004300002610878704700B58FB0CDE90131002125
:10044000059105497944CDE9031011466846FFF747
:1004500011FF0FB000BD0000E5FFFFFF754600F083
:1004600023F8AE4605006946534620F0070085464E
:1004700018B020B5FFF77CFEBDE820404FF0000625
:100480004FF000074FF000084FF0000B21F007017C
:10049000AC46ACE8C009ACE8C009ACE8C009ACE8BF
:1004A000C0098D46704700000048704700000010EA
:1004B000004870470400001001491820ABBEFEE759
:1004C0002600020010B5FFF7F3FF4FF000010160B6
:1004D00010BD0000E40400000000001060020000F5
:0404E000080100000F
:04000005000000CD2A
:00000001FF
