:060000000A128A11F12F23
:100F3C003134323433343434353436340D340034C3
:100F4C00003400347E088A007F088200A8270A1229
:100F5C008A118000840A04087D0603190034FF0AF4
:100F6C000319FE0AAC2F2530831203139400831649
:100F7C0003139401203084002C30F0000408F1009D
:100F8C000A30F2007008840083130008F300F00AA2
:100F9C007108840073088000F10AF20BC82F8712C5
:100FAC00071687158312AA01AB012A08203E84007C
:100FBC00831380080319D82F2A08203E84000008C8
:100FCC0093008C1DE72F8C110130AA070318AB0A74
:100FDC000030AB07DB2F3630FD000730FE009E30B3
:100FEC00FF002C3084000A128A11AC2783010A12EC
:040FFC008A11B92F6E
:02400E0039FF78
:00000001FF
