:060000000A128A11FC2F18
:100F12008316031306148701831203138701F50155
:100F2200F6010130F000750A982F0310F00DFF3E14
:100F3200031D962F700887000230F2000430F10082
:100F4200BA30F000F00BA32FF10BA32FF20BA32F5B
:100F52000000831203130618EC2F061CAE2F75082F
:100F6200FF3EF30076080318013EFF3EF400013015
:100F7200F000730ABE2F0310F00DFF3E031DBC2FBD
:100F8200700887000230F2000430F100BA30F0003D
:100F9200F00BC92FF10BC92FF20BC92F00008312DE
:100FA20003130618DD2F061CD42F7408F601F6076A
:100FB2007308F501F507EC2F74087304031DE52F80
:100FC2000830F3000030F400FF30F3070318F40A8E
:100FD200FF30F407B82F073075067604031DF52F8E
:100FE200FF30F500FF30F6000130F5070318F60A6E
:0E0FF2000030F607922F83010A128A11892F10
:02400E0039FF78
:00000001FF
