:100000000C9446000C9465000C9465000C946500FB
:100010000C9465000C9465000C9465000C946500CC
:100020000C9465000C9465000C9465000C946500BC
:100030000C9465000C9465000C9465000C946500AC
:100040000C9465000C9465000C9465000C9465009C
:100050000C9465000C9465000C9465000C9465008C
:100060000C9465000C9465000C9465000C9465007C
:100070000C9465000C9465000C9465000C9465006C
:100080000C9465000C9465000C94650011241FBE4F
:10009000CFEFD0E1DEBFCDBF11E0A0E0B1E0EAEEEE
:1000A000F1E000E00BBF02C007900D92A034B10751
:1000B000D9F711E0A0E4B1E001C01D92A034B1076E
:1000C000E1F70E9471000C94F4000C940000FC0114
:1000D00004C08CB95D9BFECF319680818823C9F71F
:1000E00008958F929F92AF92BF92CF92DF92EF923C
:1000F000FF920F931F93CF93DF93CDB7DEB7CE540C
:10010000D0400FB6F894DEBF0FBECDBF1BB888E15C
:100110008AB986E08093950087E689B9DE01DA9690
:10012000E0E0F1E085E101900D928150E1F7DE0120
:100130001196E5E1F1E089E001900D928150E1F73F
:10014000DE019796EEE1F1E083E101900D9281509E
:10015000E1F7DE011A96E1E3F1E08EE001900D9205
:100160008150E1F72AE3822E912C8C0E9D1E8E0188
:10017000085E1F4F5E010894A11CB11C9AE0C92EB5
:10018000D12CCC0EDD1E87E2E82EF12CEC0EFD1EEC
:10019000C4010E94670020E030E05F9BFECF8CB17D
:1001A000F801E20FF31F80838D3041F41082B80113
:1001B000C5010E94EB00892B51F407C08AE28CB97B
:1001C0005D9BFECF2F5F3F4FE8CFC70101C0C60147
:1001D0000E946700DDCFFB01DC018D910190801949
:0A01E0000110D9F3990B0895FFCF29
:1001EA00454E544552205448452050415353574F89
:1001FA0052440D0A0070617373776F7264000D0ABE
:10020A00414343455353204752414E5445440D0AF6
:10021A00000D0A54525920414741494E0D0A000027
:00000001FF
