:100000000A128A11FC2F00308A000408840A820731
:100010000034013400340A34003464340034E834E9
:1000200003341034273441344434433431343D34C0
:0A003000253464340D340A34003422
:100C8E00F300F101F20171087307F000700884009F
:100C9E00831380080319080071087307F0007008A9
:100CAE008400831300088312031399008316031321
:100CBE00981C5D2E0130F1070318F20A0030F2077E
:100CCE004A2E790878040319952EFD01FD0AF91BA9
:100CDE007C2E01300310F80DF90DFF3E031D712E11
:100CEE000130FC007C08FD076E2E79087B02031D87
:100CFE00822E78087A02031C8A2E7808FA02790866
:100D0E00031CFB03FB0201300310F90CF80CFF3E31
:100D1E00031D8B2E0130FD02031D7C2E7B08F90175
:100D2E00F9077A08F801F8070800F501F6017108CD
:100D3E0070040319D32EF701F70AF11BB22E0130FE
:100D4E000310F00DF10DFF3E031DA72E0130F40030
:100D5E007408F707A42E01300310F50DF60DFF3EB3
:100D6E00031DB32E71087302031DBF2E700872028D
:100D7E00031CC82E7008F2027108031CF303F30261
:100D8E00751401300310F10CF00CFF3E031DC92E3B
:100D9E000130F702031DB22E7608F101F107750836
:100DAE00F001F00708004130831203139F008030DA
:100DBE00831603139F002430980090308312031380
:100DCE0098001930831603139900831203139F1290
:100DDE001F129F111F151F19F22E1E08C701C707DC
:100DEE00831603131E0883120313C601C6070B30A6
:100DFE00AF002F08A0004708A201A2074608A101D4
:100E0E00A10732300A128A1123270A128A113230B0
:100E1E000A128A1147260A128A110230831203130C
:100E2E00B1008630B0009930AF00AF0B1C2FB00B65
:100E3E001C2FB10B1C2FEC2E83120313AD0021308F
:100E4E00A3002308A6000130A007FF30200784006E
:100E5E000A128A1103200A128A11A3002308AE0077
:100E6E00AE080319F72F2E08253A03194A2F2E081C
:100E7E00A3002D0884002308831380000130A300F3
:100E8E002308AD072A2FA7010130A007FF30200746
:100E9E0084000A128A1103200A128A11AE00003A47
:100EAE000319F72F643A0319602F0D3A0319602FB7
:100EBE002A2F2608840083130008A900840A00083C
:100ECE00AA000230A3002308A607AA1F772F03301B
:100EDE00A3002308A704A909AA09A90A0319AA0AA3
:100EEE00AE01AE0A2E08053A03199E2F2E08A30056
:100EFE002307013E84000A128A1103200A128A1166
:100F0E00A4000A128A1103200A128A11A5002508CC
:100F1E002A02031D942F24082902031C9E2F013040
:100F2E00A3002308AE072E08053A031D7D2F2708C0
:100F3E0003390319AD2F2D30A3002D08840023088B
:100F4E00831380000130A3002308AD072E08A300F1
:100F5E002308A800FF30A3002308A8072808FF3A9B
:100F6E0003192A2F0A30F8000030F9002808A300D0
:100F7E002307013E84000A128A1103200A128A11E5
:100F8E00F0000A128A1103200A128A11F1002A08AF
:100F9E00F301F3072908F201F2070A128A119C26BF
:100FAE000A128A117108FB01FB077008FA01FA0791
:100FBE000A128A1168260A128A117808303E8312A4
:100FCE000313A4002408AE002E08A3002D088400ED
:100FDE002308831380000130A3002308AD07B12F2F
:100FEE002D08840083138001080083010A128A11E0
:020FFE00DA2EE9
:02400E0039FF78
:00000001FF
