:060000000A128A11FC2F18
:100F700083160313850186018701831203138501FC
:100F800086018701FF3083120313850086018701E4
:100F90000230F2000430F100BA30F000F00BCE2F36
:100FA000F10BCE2FF20BCE2F00008312031385011D
:100FB000FF30860087010230F2000430F100BA30C1
:100FC000F000F00BE12FF10BE12FF20BE12F00000D
:100FD0008312031385018601FF3087000230F2007F
:100FE0000430F100BA30F000F00BF42FF10BF42FC5
:100FF000F20BF42F0000C22F83010A128A11B82FBE
:02400E0039FF78
:00000001FF
