:060000000A128A11FC2F18
:100EFA00243083160313980090308312031398004A
:100F0A0019308316031399002030831203139400B7
:100F1A008316031394018712071687110230F20011
:100F2A000430F100BA30F000F00B992FF10B992F31
:100F3A00F20B992F000083120313AA01AB01AB2F06
:100F4A000130AA070318AB0A0030AB0741309300FF
:100F5A008C1DAD2F8C110230F2000430F100BA3032
:100F6A00F000F00BB62FF10BB62FF20BB62F0000E4
:100F7A00831203131308F0002A08203E8400700825
:100F8A00831380002A08203E840000080D3A031DBE
:100F9A00A52F2A08203E84008001AA01AB012A0855
:100FAA00203E8400831380080319ED2F2A08203E6F
:100FBA0084000008990083160313981CE02F01305F
:100FCA0083120313AA070318AB0A0030AB07D42F06
:100FDA000D30990083160313981CEF2F0A308312E1
:100FEA0003139900831603139818932FF72F83017D
:060FFA000A128A117D2F8E
:02400E0039FF78
:00000001FF
