:060000000A128A11F02F24
:100DFE0071347734653472347434793400347E0847
:100E0E008A007F08820006270A128A118000840A4F
:100E1E0004087D0603190034FF0A0319FE0A0A2F7F
:100E2E00F20083120313071087107208F039F000D6
:100E3E007008F30007080F3987000708730487004E
:100E4E0007152130F1007630F000F00B2C2FF10B4E
:100E5E002C2F000083120313071172080F39F000B4
:100E6E007008F30007080F3987007308F00003308D
:100E7E000310F00DFF3E031D3F2F0310700D0704EE
:100E8E00870007152130F1007630F000F00B4D2F62
:100E9E00F10B4D2F00008312031307110800F2000F
:100EAE0083120313071487107208F039F0007008CC
:100EBE00F30007080F39870007087304870007152A
:100ECE002130F1007630F000F00B6B2FF10B6B2F11
:100EDE00000083120313071172080F39F000700817
:100EEE00F30007080F3987007308F0000330031072
:100EFE00F00DFF3E031D7E2F0310700D07048700BB
:100F0E0007152130F1007630F000F00B8C2FF10B2D
:100F1E008C2F00008312031307110800831603138E
:100F2E00870102300A128A1117270A128A110C3011
:100F3E000A128A1117270A128A1128300A128A11E8
:100F4E0017270A128A1101300A128A1117270A125C
:100F5E008A1180300A128A1117270A128A1120303C
:100F6E0084002930F4000408F5000730F6007408F8
:100F7E00840083130008F700F40A750884007708CC
:100F8E008000F50AF60BBE2F83120313A701A801EA
:100F9E002708203E8400831380080319E92F2708B1
:100FAE00203E8400831300080A128A1156270A1263
:100FBE008A11013083120313A7070318A80A003001
:100FCE00A807CF2F80300A128A1117270A128A110A
:100FDE00CB2F83133030FD000630FE00FF30FF00B4
:100FEE00293084000A128A110A2783010A128A11F3
:020FFE00952F2D
:02400E0039FF78
:00000001FF
