:100000000A128A11FC2F00308A000408840A820731
:100010000034013400340A34003464340034E834E9
:0C002000033410342734253464340034D9
:1005B400F100F0013A3071020318E62A303071027A
:1005C400031CE62AF001F00A700C080002300A123B
:1005D4008A11B9230A128A110C300A128A11B9231A
:1005E4000A128A1128300A128A11B9230A128A11AE
:1005F40001300A128A11B9230A128A1180300A12B0
:100604008A11B9230800F700F501F6017508770788
:10061400F400740884008313800803190800750823
:100624007707F40074088400831300080A128A11FF
:10063400F8230A128A110130F5070318F60A00306C
:10064400F607082BF401F501701C2E2B7208F40731
:100654000318F50A7308F50701300310F20DF30DC2
:10066400FF3E031D2F2B01300310F10CF00CFF3E55
:10067400031D362B71087004031D262B7508F10128
:10068400F1077408F001F0070800790878040319E9
:10069400742BFD01FD0AF91B5B2B01300310F80DCF
:1006A400F90DFF3E031D502B0130FC007C08FD07B3
:1006B4004D2B79087B02031D612B78087A02031CF9
:1006C400692B7808FA027908031CFB03FB0201304A
:1006D4000310F90CF80CFF3E031D6A2B0130FD02D8
:1006E400031D5B2B7B08F901F9077A08F801F80769
:1006F4000800F501F601710870040319B22BF70123
:10070400F70AF11B912B01300310F00DF10DFF3EA0
:10071400031D862B0130F4007408F707832B013086
:100724000310F50DF60DFF3E031D922B71087302A5
:10073400031D9E2B70087202031CA72B7008F20283
:100744007108031CF303F302751401300310F10C58
:10075400F00CFF3E031DA82B0130F702031D912B63
:100764007608F101F1077508F001F0070800F200BE
:1007740083120313071087107208F039F000700811
:10078400F30007080F39870007087304870007156B
:100794002130F1007630F000F00BCE2BF10BCE2B94
:1007A400000083120313071172080F39F000700858
:1007B400F30007080F3987007308F00003300310B3
:1007C400F00DFF3E031DE12B0310700D070487009D
:1007D40007152130F1007630F000F00BEF2BF10B10
:1007E400EF2B00008312031307110800F200831299
:1007F4000313071487107208F039F0007008F3002F
:1008040007080F398700070873048700071521308C
:10081400F1007630F000F00B0D2CF10B0D2C0000E4
:1008240083120313071172080F39F0007008F300E4
:1008340007080F3987007308F00003300310F00D28
:10084400FF3E031D202C0310700D070487000715BD
:100854002130F1007630F000F00B2E2CF10B2E2C11
:1008640000008312031307110800F601F11F412C45
:10087400F009F109F00A0319F10AF601F60AF31F67
:100884004C2CF209F309F20A0319F30A0130F400BB
:100894007408F606F701F801710870040319832C33
:1008A400F501F50AF11B622C01300310F00DF10D76
:1008B400FF3E031D572C0130F4007408F507542C37
:1008C40001300310F70DF80DFF3E031D632C710872
:1008D4007302031D6F2C70087202031C782C7008BD
:1008E400F2027108031CF303F302771401300310BE
:1008F400F10CF00CFF3E031D792C0130F502031DB1
:10090400622C760803198B2CF709F809F70A0319E6
:10091400F80A7808F101F1077708F001F0070800F8
:10092400FD007D08840083130008203A031D9F2CDA
:100934000130F8007808FD07932C7D088400000836
:10094400093A03199A2CFB01FC01FA017D08840081
:1009540000082D3A031DB32C0130F8007808FA077B
:10096400B92C7D08840000082B3A031DBD2C0130EE
:10097400F8007808FD077D08840000080A128A112F
:10098400DA220A128A11031CE92C7C08F101F1070E
:100994007B08F001F0070A30F2000030F3000A127D
:1009A4008A1124230A128A117D0884008313000803
:1009B4007007F80071080318710AF9007808D03E2E
:1009C400FB0079080318013EFF3EFC00B92C7A08AD
:1009D4000319F82C7B09F8007C09F900F80A0319BB
:1009E400F90A7808F6007908F70008007C08F7018E
:1009F400F7077B08F601F60708008230F100DD30C6
:100A0400F000F00B032DF10B032D082D83120313BB
:100A140006108615861D122D831203130615152D37
:100A2400831203130611061D1B2D83120313861450
:100A34001E2D831203138610061A242D061E202D44
:100A440037300800861A2A2D861E262D38300800D5
:100A5400061B302D061F2C2D39300800861B362D21
:100A6400861F322D2F30080086108615861D3E2DD8
:100A7400831203130615412D831203130611061D59
:100A8400472D8312031306144A2D831203130610F1
:100A9400061A502D061E4C2D34300800861A562D89
:100AA400861E522D35300800061B5C2D061F582D5E
:100AB40036300800861B622D861F5E2D2A30080002
:100AC40006118615861D6A2D8312031386146D2D57
:100AD400831203138610861C732D831203130614CA
:100AE400762D831203130610061A7C2D061E782D0C
:100AF40031300800861A822D861E7E2D3230080081
:100B0400061B882D061F842D33300800861B8E2D6E
:100B1400861F8A2D2D30080086110615061D962D78
:100B2400831203138614992D831203138610861CD3
:100B34009F2D831203130614A22D83120313061090
:100B4400061AA82D061EA42D63300800861AAE2DA1
:100B5400861EAA2D30300800061BB42D061FB02DAA
:100B64003D300800861BFF2C861FB62D2B30080055
:100B740083120313AD002130A3002308A600013023
:100B8400A007FF30200784000A128A1103200A12EA
:100B94008A11A3002308AE00AE0803198E2E2E0876
:100BA400253A0319E12D2E08A3002D0884002308FB
:100BB400831380000130A3002308AD07C12DA701D2
:100BC4000130A007FF30200784000A128A11032095
:100BD4000A128A11AE00003A03198E2E643A0319E0
:100BE400F72D0D3A0319F72DC12D26088400831320
:100BF4000008A900840A0008AA000230A300230800
:100C0400A607AA1F0E2E0330A3002308A704A909D0
:100C1400AA09A90A0319AA0AAE01AE0A2E08053ABE
:100C24000319352E2E08A3002307013E84000A125F
:100C34008A1103200A128A11A4000A128A110320BD
:100C44000A128A11A50025082A02031D2B2E240846
:100C54002902031C352E0130A3002308AE072E08F9
:100C6400053A031D142E270803390319442E2D3089
:100C7400A3002D0884002308831380000130A300FF
:100C84002308AD072E08A3002308A800FF30A30003
:100C94002308A8072808FF3A0319C12D0A30F800D1
:100CA4000030F9002808A3002307013E84000A123B
:100CB4008A1103200A128A11F0000A128A110320F1
:100CC4000A128A11F1002A08F301F3072908F20134
:100CD400F2070A128A117B230A128A117108FB0196
:100CE400FB077008FA01FA070A128A1147230A124D
:100CF4008A117808303E83120313A4002408AE003E
:100D04002E08A3002D0884002308831380000130DB
:100D1400A3002308AD07482E2D0884008313800107
:100D24000800831603138701F03086000A128A1123
:100D3400E8220A128A1183120313DA01DB01A82EB6
:100D44000130DA070318DB0A0030DB070A128A11C4
:100D5400FF240A128A1183120313AF005A08483E73
:100D640084002F08831380005A08483E840000083A
:100D74000A128A11F8230A128A11831203135A08D9
:100D8400483E8400831300082B3A0319DE2E5A08C8
:100D9400483E840000082D3A0319DE2E5A08483EC6
:100DA400840000082A3A0319DE2E5A08483E8400BB
:100DB40000082F3A031DA22E5A08483E840000085A
:100DC400AF002F08D4005A08483E84008001DA019D
:100DD400DB01F22E0130DA070318DB0A0030DB07EF
:100DE4000A128A11FF240A128A1183120313AF0014
:100DF4005A08323E84002F08831380005A08323E7A
:100E0400840000080A128A11F8230A128A11831234
:100E140003135A08323E8400831300083D3A031D2D
:100E2400EC2EC0300A128A11B9230A128A118312D5
:100E340003135A08323E84008313800148300A1297
:100E44008A1192240A128A11770883120313D70194
:100E5400D7077608D601D60732300A128A119224AF
:100E64000A128A11770883120313D901D907760865
:100E7400D801D807D72F0B30AF002F08A00058088F
:100E84005607A10059080318590A5707A2003E3013
:100E94000A128A11BA250A128A113E300A128A11DC
:100EA40005230A128A11E72F0B3083120313AF00B4
:100EB4002F08A0005809B0005909B100B00A03195D
:100EC400B10A56083007A10057080318570A31071A
:100ED400A2003E300A128A11BA250A128A113E3043
:100EE4000A128A1105230A128A11E72F0B30831282
:100EF4000313AF002F08A0005708F101F1075608AB
:100F0400F001F0075908F301F3075808F201F2075A
:100F14000A128A1124230A128A11710883120313F4
:100F2400A201A2077008A101A1073E300A128A118A
:100F3400BA250A128A113E300A128A1105230A12AE
:100F44008A11E72F0B3083120313AF002F08A00080
:100F54005908F101F1075808F001F0075708F301A7
:100F6400F3075608F201F2070A128A1137240A120B
:100F74008A11710883120313A201A2077008A10148
:100F8400A1073E300A128A11BA250A128A113E308C
:100F94000A128A1105230A128A11E72F63300A12F2
:100FA4008A11F8230A128A11E72F831203135408B3
:100FB4002A3A0319782F013A03193D2F063A0319E7
:100FC400562F023A0319A42FD02F0A128A11FF2494
:100FD4000A128A1183120313AF002F08D500550893
:100FE400633A031D9D2E01300A128A11B9230A1295
:0C0FF4008A119D2E83010A128A11932E8F
:02400E0039FF78
:00000001FF
