:100000000C9446000C9465000C9465000C946500FB
:100010000C9465000C9465000C9465000C946500CC
:100020000C9465000C9465000C9465000C946500BC
:100030000C9465000C9465000C9465000C946500AC
:100040000C9435140C9465000C9465000C946500B8
:100050000C9465000C9465000C9465000C9465008C
:100060000C9465000C9465000C9465000C9465007C
:100070000C9465000C9465000C9465000C9465006C
:100080000C9465000C9465000C94650011241FBE4F
:10009000CFEFD0E1DEBFCDBF12E0A0E0B1E0EAEEED
:1000A000F4E300E00BBF02C007900D92AC36B1073D
:1000B000D9F716E0ACE6B2E001C01D92AF33B1074C
:1000C000E1F70E947C010C94741A0C940000CF9309
:1000D000DF93CDB7DEB762970FB6F894DEBF0FBEE1
:1000E000CDBF9A8B898B188A1F868EC0ACE2B0E098
:1000F0008F8598899C0189899A89F901E80FF91FF0
:1001000080818C93EBE2F0E08081882F90E0807218
:1001100090700097B9F380E090E0A8ECB2E48B8790
:100120009C87AD87BE8720E030E04AE753E46B85CB
:100130007C858D859E850E946216DC01CB018F83B4
:100140009887A987BA8720E030E040E85FE36F81B5
:10015000788589859A850E94CD1788230CF005C083
:1001600081E090E09E838D8340C020E03FEF4FE729
:1001700057E46F81788589859A850E9461171816E2
:100180000CF029C020E030E040E251E46B857C8532
:100190008D859E850E946216DC01CB01BC01CD01DC
:1001A0000E949814DC01CB019E838D830FC089E1EE
:1001B00090E09C838B838B819C810197F1F79C83DA
:1001C0008B838D819E8101979E838D838D819E81FE
:1001D000009769F714C06F81788589859A850E9498
:1001E0009814DC01CB019E838D838D819E819A833F
:1001F000898389819A810197F1F79A8389838F8511
:1002000098890196988B8F878F8598899C01898919
:100210009A89F901E80FF91F8081882309F066CFD8
:1002200062960FB6F894DEBF0FBECDBFDF91CF91BF
:100230000895CF93DF93CDB7DEB78091EC02909114
:10024000ED022091EE023091EF02AC0160E070E02F
:10025000C9010E94DF0B80E091E00E94670080915D
:10026000EE029091EF020E94200D81E090E00E944A
:100270003A12E3CFCF93DF93CDB7DEB78091EC0294
:100280009091ED022091EE023091EF02AC0160E01E
:1002900070E0C9010E94DF0B8DE291E00E946700CF
:1002A0008091EE029091EF020E94200D81E090E09B
:1002B0000E943A12E3CFCF93DF93CDB7DEB78091A0
:1002C000EC029091ED022091EE023091EF02AC0130
:1002D00060E070E0C9010E94DF0B87E491E00E94BA
:1002E00067008091EE029091EF020E94200D81E064
:1002F00090E00E943A12E3CFCF93DF93CDB7DEB701
:10030000EBE2F0E01082EAE2F0E088E18083E5E9E8
:10031000F0E086E08083E9E2F0E087E68083E3E5D1
:10032000F0E087E08083E7E5F0E081E080830E94F1
:1003300088038BEE92E0E9E1F1E025E0AC0160E0BA
:1003400070E0CF010E94610F8FE693E0EAE3F1E0F5
:1003500026E0AC0160E070E0CF010E94610F8FEEFB
:1003600093E0EBE5F1E027E0AC0160E070E0CF0165
:100370000E94610F8091EC029091ED02BC0184E03B
:100380000E94550B9093EF028093EE020E94590455
:10039000DF91CF910895CF93DF93CDB7DEB72C9740
:1003A0000FB6F894DEBF0FBECDBF9E838D837887D6
:1003B0006F835A8749873C872B8789859A859C83D9
:1003C0008B838D819E819A8389838981EB81FC81D6
:1003D00080838B819C8101979C838B8389819A8107
:1003E000892F9927EB81FC8180838B819C810197E8
:1003F0009C838B83EB81FC8110828B819C81019794
:100400009C838B83EB81FC8110828B819C81019783
:100410009C838B83EB81FC8110828B819C81019773
:100420009C838B83EB81FC8110828B819C81019763
:100430009C838B83EB81FC8110828B819C81019753
:100440009C838B83EB81FC8110828B819C81019743
:100450009C838B83EB81FC8110828B819C81019733
:100460009C838B83EB81FC8110828B819C81019723
:100470009C838B83EB81FC8110828B819C81019713
:100480009C838B83EB81FC8110828B819C81019703
:100490009C838B83EB81FC8110828B819C810197F3
:1004A0009C838B83EB81FC8110828B819C810197E3
:1004B0009C838B83EB81FC8110828B819C810197D3
:1004C0009C838B83EB81FC8110828B819C810197C3
:1004D0009C838B83EB81FC8110828B819C810197B3
:1004E0009C838B83EB81FC8110828B819C810197A3
:1004F0009C838B83EB81FC8110828B819C81019793
:100500009C838B83EB81FC8110828B819C81019782
:100510009C838B83EB81FC8110828B819C81019772
:100520009C838B83EB81FC8110828B819C81019762
:100530009C838B83EB81FC8110828B819C81019752
:100540009C838B83EB81FC8110828B819C81019742
:100550009C838B83EB81FC8110828B819C81019732
:100560009C838B83EB81FC8110828B819C81019722
:100570009C838B838F8198859A8389838981EB8182
:10058000FC8180838B819C8101979C838B838981F3
:100590009A81892F9927EB81FC8180838B819C81B3
:1005A00001979C838B83EB81FC8110828B819C81E2
:1005B00001979C838B83EB81FC8110828B819C81D2
:1005C00001979C838B83EB81FC8110828B819C81C2
:1005D00001979C838B83EB81FC8110828B819C81B2
:1005E00001979C838B83EB81FC8110828B819C81A2
:1005F00001979C838B83EB81FC8110828B819C8192
:1006000001979C838B83EB81FC8110828B819C8181
:1006100001979C838B83EB81FC8180E880838B81B5
:100620009C8101979C838B838B819C812C960FB638
:10063000F894DEBF0FBECDBFDF91CF910895CF9369
:10064000DF93CDB7DEB722970FB6F894DEBF0FBEAB
:10065000CDBF9A83898322960FB6F894DEBF0FBE72
:10066000CDBFDF91CF910895CF93DF93CDB7DEB7A4
:1006700022970FB6F894DEBF0FBECDBF9A83898351
:1006800022960FB6F894DEBF0FBECDBFDF91CF919B
:100690000895CF93DF93CDB7DEB7DF91CF91089563
:1006A000CF93DF93CDB7DEB7DF91CF910895CF938E
:1006B000DF93CDB7DEB7DF91CF910895CF93DF936E
:1006C000CDB7DEB7DF91CF910895CF93DF93CDB74C
:1006D000DEB7DF91CF910895CF93DF93CDB7DEB72B
:1006E000DF91CF910895CF93DF93CDB7DEB72297F7
:1006F0000FB6F894DEBF0FBECDBF9A8389832296D2
:100700000FB6F894DEBF0FBECDBFDF91CF91089535
:10071000CF93DF93CDB7DEB70E945E030E946307DD
:100720000E9482070E94E0070E941B070E94BC07EC
:100730000E94CE070E946503DF91CF910895CF9369
:10074000DF93CDB7DEB78091F103813049F480911A
:100750008E048F3F29F080918E048F5F80938E04EA
:10076000DF91CF910895CF93DF93CDB7DEB780911E
:10077000F103813009F060C0F89480918E048823E1
:1007800029F080918E04815080938E0480918E0494
:10079000882309F050C08091F003882309F04BC0F2
:1007A00080918804882F90E0FC01ED59FE4F8081F4
:1007B00080938D0480918D04282F220F220F220F09
:1007C00080918D04882F90E0FC01E757FB4F8081DA
:1007D000882F90E0FC01ED59FE4F8081820F8093BD
:1007E000F6039091F6038091F703981721F1809119
:1007F000F603882F90E0880F991FFC01EF5DF94FF9
:1008000080819181909387048093860480917A04FB
:1008100090917B04A0917C04B0917D040196A11D70
:10082000B11D80937A0490937B04A0937C04B093D1
:100830007D040E94FE137894DF91CF910895CF93A9
:10084000DF93CDB7DEB78091F103813059F4F8948E
:100850008091F0038F3F29F08091F0038F5F8093A8
:10086000F0037894DF91CF910895CF93DF93CDB7C4
:10087000DEB78091F1038130C9F4F8948091F003E0
:10088000882399F08091F00381508093F003809148
:10089000F003882341F480918E04882321F4789416
:1008A0000E94330803C0789401C07894DF91CF91FF
:1008B0000895CF93DF93CDB7DEB722970FB6F894A4
:1008C000DEBF0FBECDBF8091F1038823E9F5809193
:1008D0008804882F90E0FC01ED59FE4F80818A83C7
:1008E0008A81882F90E0FC01E757FB4F8081882F99
:1008F00090E0FC01ED59FE4F808189838A81982F19
:10090000990F990F990F8981890F8093F603809130
:10091000F6038093F7038091F603882F90E0880F09
:10092000991FFC01EF5DF94F8081918190938704BD
:10093000809386048091860490918704909390041C
:1009400080938F040E94671322960FB6F894DEBF3F
:100950000FBECDBFDF91CF910895CF93DF93CDB779
:10096000DEB782E090E00E943A12F8941092F2030F
:100970001092F3031092F4031092F50378948DE330
:1009800090E00E943A12F8948091F2039091F30360
:10099000A091F403B091F50380937E0490937F04BB
:1009A000A0938004B093810481E080932006789422
:1009B000DF91CF910895CF93DF93CDB7DEB7229724
:1009C0000FB6F894DEBF0FBECDBF0E9457038091D3
:1009D000F103813009F058C08091F8039091F90338
:1009E0009A8389834BC0F894E981FA818285938543
:1009F0000097E9F1E981FA81828593850197E98180
:100A0000FA8193878287E981FA81828593850097AD
:100A100071F5E981FA818485882F90E08870907063
:100A20000097F9F4E981FA81918980918804892BF2
:100A300080938804E981FA818785282F30E0E98155
:100A4000FA818785882F90E0FC01E757FB4F908162
:100A5000E981FA818089892BF901E757FB4F80836F
:100A600006C0E981FA8181E090E093878287E9817D
:100A7000FA81828193819A8389837894E981FA81CA
:100A800085858C3009F0AFCF22960FB6F894DEBF83
:100A90000FBECDBFDF91CF910895CF93DF93CDB738
:100AA000DEB78CEF90E0DF91CF910895CF93DF9385
:100AB000CDB7DEB7DF91CF910895CF93DF93CDB758
:100AC000DEB72C970FB6F894DEBF0FBECDBF998767
:100AD00088877B876A874C87E885F9858181882F9D
:100AE00090E0FC01ED59FE4F80818C838C81882F32
:100AF00090E0FC01E55AFE4F80818A838C81282F8B
:100B000030E088859985820F931FFC01369680819D
:100B1000882F90E0FC01ED59FE4F80818D838D81FF
:100B2000882F90E0FC01E55AFE4F80818B838C81F9
:100B3000982F990F990F990F8D81890F89838C8137
:100B4000482F50E08C81282F30E088859985820FCE
:100B5000931FFC0136968081982F8B818095892385
:100B6000282F88859985840F951FFC013696208350
:100B700088859985840F951FFC013696808188238E
:100B800051F4E885F9858181982F8A8180958923A0
:100B9000E885F98581838981882F90E0880F991FE6
:100BA000FC01EF5DF94F808191819F838E83EE81FF
:100BB000FF8113861286EE81FF8117821682EE81F5
:100BC000FF818A859B8591878087EE81FF8184855F
:100BD000982F8C8580958923EE81FF818487EE8113
:100BE000FF8184858823B1F4909188048A81892BC0
:100BF000809388048C81282F30E08C81882F90E0AE
:100C0000FC01E757FB4F90818B81892BF901E75756
:100C1000FB4F80838981882F90E02C960FB6F89443
:100C2000DEBF0FBECDBFDF91CF910895CF93DF938D
:100C3000CDB7DEB722970FB6F894DEBF0FBECDBF9B
:100C40009A838983E0918F04F091900489819A813D
:100C500097838683E0918F04F09190048785282FF5
:100C600030E0E0918F04F09190048785882F90E028
:100C7000FC01E757FB4F8081982FE0918F04F091A2
:100C80009004808980958923F901E757FB4F808381
:100C9000F901E757FB4F8081882361F4E0918F04CD
:100CA000F09190048189982F9095809188048923F0
:100CB00080938804E0918F04F09190048785482FF9
:100CC00050E0E0918F04F09190048785282F30E068
:100CD00089819A81820F931FFC0136969081E09161
:100CE0008F04F09190048089292F282B89819A8183
:100CF000840F951FFC0136962083E981FA8191814A
:100D0000E0918F04F09190048189892BE981FA8127
:100D1000818322960FB6F894DEBF0FBECDBFDF9160
:100D2000CF910895CF93DF93CDB7DEB722970FB65B
:100D3000F894DEBF0FBECDBF9A838983E0918F0404
:100D4000F09190048785482F50E0E0918F04F09156
:100D500090048785282F30E089819A81820F931F24
:100D6000FC0136968081982FE0918F04F0919004D9
:100D7000808980958923282F89819A81840F951FE6
:100D8000FC013696208389819A81840F951FFC018E
:100D900036968081882371F4E981FA818181982FC8
:100DA000E0918F04F0919004818980958923E981F5
:100DB000FA818183E0918F04F09190041486E09190
:100DC0008F04F09190041782168222960FB6F89441
:100DD000DEBF0FBECDBFDF91CF910895CF93DF93DC
:100DE000CDB7DEB724970FB6F894DEBF0FBECDBFE8
:100DF0009C838B83EB81FC8111828B819C81069685
:100E00009A838983E981FA81108289819A81019686
:100E10009A838983E981FA81108289819A81019676
:100E20009A83898324960FB6F894DEBF0FBECDBF98
:100E3000DF91CF910895CF93DF93CDB7DEB726979B
:100E40000FB6F894DEBF0FBECDBF81E195E09C8365
:100E50008B8389E195E09A8389831E821D8218C065
:100E6000EB81FC811082EB81FC8189819A819583E1
:100E700084838B819C8108969C838B8389819A8152
:100E800008969A8389838D819E8101969E838D83A6
:100E90008D819E818230910518F3EB81FC81108257
:100EA000EB81FC811582148281E195E090938C04A2
:100EB00080938B0426960FB6F894DEBF0FBECDBF8D
:100EC000DF91CF910895CF93DF93CDB7DEB7109226
:100ED0008E041092F003109285041092F103109288
:100EE0007A0410927B0410927C0410927D0410927C
:100EF000F2031092F3031092F4031092F503DF91C2
:100F0000CF910895CF93DF93CDB7DEB724970FB677
:100F1000F894DEBF0FBECDBF1092880489E894E03C
:100F20009A8389831C821B820DC0E981FA81108219
:100F300089819A8101969A8389838B819C8101960C
:100F40009C838B838B819C818230910570F31092FE
:100F5000F7031092F6031092870410928604109201
:100F6000900410928F0424960FB6F894DEBF0FBE43
:100F7000CDBFDF91CF910895CF93DF93CDB7DEB78B
:100F800080E195E0EAE9F8E02CE0AC0160E070E097
:100F9000CF010E94610FDF91CF910895CF93DF932E
:100FA000CDB7DEB789E794E0EEEBF8E02BE0AC01DB
:100FB00060E070E0CF010E94610FDF91CF91089552
:100FC000CF93DF93CDB7DEB725970FB6F894DEBF8A
:100FD0000FBECDBF1092F9031092F8031D820DC011
:100FE0008D81882F90E0880F991FFC01EF5DF94FEC
:100FF000118210828D818F5F8D838D818D3080F382
:1010000089E295E09C838B838CE395E09A838983C6
:101010001D8213C0EB81FC8189819A819383828335
:101020008B819C8143969C838B8389819A81439693
:101030009A8389838D818F5F8D838D818C3050F36E
:10104000EB81FC811382128289E295E09093830404
:101050008093820425960FB6F894DEBF0FBECDBFF5
:10106000DF91CF910895CF93DF93CDB7DEB721976E
:101070000FB6F894DEBF0FBECDBFF89480918E04FA
:10108000882309F04DC08091F003882309F048C0FF
:1010900080918804882F90E0FC01ED59FE4F8081FB
:1010A00089838981282F220F220F220F8981882F7F
:1010B00090E0FC01E757FB4F8081882F90E0FC0116
:1010C000ED59FE4F8081820F8093F6039091F603D5
:1010D0008091F703981721F18091F603882F90E013
:1010E000880F991FFC01EF5DF94F808191819093EA
:1010F00087048093860480917A0490917B04A09168
:101100007C04B0917D040196A11DB11D80937A04E9
:1011100090937B04A0937C04B0937D040E949B1366
:10112000789421960FB6F894DEBF0FBECDBFDF9145
:10113000CF910895CF93DF93CDB7DEB722970FB647
:10114000F894DEBF0FBECDBF9A838983F894809157
:10115000F2039091F303A091F403B091F50301968B
:10116000A11DB11D8093F2039093F303A093F403A8
:10117000B093F50378940E946C03E8CFCF93DF938C
:10118000CDB7DEB72B970FB6F894DEBF0FBECDBF3D
:101190009B878A8704C08AE790E00E943A12809178
:1011A00020068823C1F380917E0490917F04A09152
:1011B0008004B091810424E630E040E050E0BC01BE
:1011C000CD010E941B1ADA01C9018A839B83AC837B
:1011D000BD83F8948091F2039091F303A091F403FE
:1011E000B091F50380933B0690933C06A0933D0697
:1011F000B0933E068091F2039091F303A091F40323
:10120000B091F5038E839F83A887B9871092F2036C
:101210001092F3031092F4031092F50378948A81EC
:101220009B81AC81BD810097A105B105E1F08E8164
:101230009F81A885B9852A813B814C815D81BC0154
:10124000CD010E941B1ADA01C901982F84E6891B7F
:1012500089838981882324F08981809384041BC039
:101260001092840418C01092840480917E0490919E
:101270007F04A0918004B091810424E630E040E036
:1012800050E0BC01CD010E941B1ADA01C9018A831A
:101290009B83AC83BD830E9450038DE390E00E944A
:1012A0003A1297CFAF92BF92CF92DF92EF92FF9216
:1012B0000F931F93CF93DF93CDB7DEB763970FB62E
:1012C000F894DEBF0FBECDBF8B837D836C835F83BD
:1012D0004E8339872887EA86FB860C871D87DF8641
:1012E000CE86B98AA88AF89480918204909183046A
:1012F0009A83898389819A81009709F4A0C0E98142
:10130000FA818281938190938304809382047894FC
:10131000E981FA818C819D8191838083E981FA81C1
:101320008B818587E981FA811486E981FA811386A8
:101330001286E981FA81128A8B8186958695869537
:10134000E981FA818787E981FA818785882F90E092
:10135000FC01E55AFE4F8081E981FA81818B8B8106
:101360008770E981FA818687E981FA818685882FED
:1013700090E0FC01E55AFE4F8081E981FA81808B83
:10138000E981FA8117821682E981FA811186108635
:1013900089819A810E94730389819A810E941F0327
:1013A000F8948B81882F90E0880F991FFC01EF5DE6
:1013B000F94F89819A81918380838091F80390917C
:1013C000F903E981FA8193838283E981FA811582A5
:1013D00014828091F8039091F903009741F0E09115
:1013E000F803F091F90389819A8195838483898137
:1013F0009A819093F9038093F803E981FA819189A6
:1014000080918804892B80938804E981FA818785FB
:10141000282F30E0E981FA818785882F90E0FC0150
:10142000E757FB4F9081E981FA818089892BF90187
:10143000E757FB4F808378941B8A1A8A05C07894FB
:1014400086E490E09B8B8A8B8A899B8963960FB692
:10145000F894DEBF0FBECDBFDF91CF911F910F91EA
:10146000FF90EF90DF90CF90BF90AF900895CF9313
:10147000DF93CDB7DEB726970FB6F894DEBF0FBE69
:10148000CDBF9C838B8380918E04882319F01E82AC
:101490001D8232C0F89480918B0490918C049A83C1
:1014A000898380918B0490918C04009751F0E09196
:1014B0008B04F0918C048481958190938C048093AB
:1014C0008B04789489819A81009791F0E981FA815F
:1014D00081E08083E981FA8113821282E981FA81B5
:1014E0008B819C819583848389819A810E94EE06F9
:1014F00089819A819E838D838D819E8126960FB6E8
:10150000F894DEBF0FBECDBFDF91CF910895CF938A
:10151000DF93CDB7DEB72A970FB6F894DEBF0FBEC4
:10152000CDBF9C838B837E836D8358874F8380914F
:101530008E04882339F0EF81F88582E080831A8653
:10154000198665C0F894EB81FC81848195819A832A
:10155000898389819A81009769F0EB81FC811582EA
:1015600014827894EF81F885108289819A819A8714
:1015700089874DC0A0918F04B0919004E0918F04B1
:10158000F091900484858260FD018487E0918F044E
:10159000F09190048D819E81938782878B819C81BD
:1015A0000E94160678940E943308F894E0918F0404
:1015B000F0919004808591859A83898389819A81AD
:1015C0000097D1F0E0918F04F0919004118610867D
:1015D000E0918F04F09190041486E0918F04F091D3
:1015E0009004178216827894EF81F88510828981A1
:1015F0009A819A8789870BC08B819C810E94920671
:101600007894EF81F8858AE080831A861986898527
:101610009A852A960FB6F894DEBF0FBECDBFDF9134
:10162000CF910895CF93DF93CDB7DEB726970FB64E
:10163000F894DEBF0FBECDBF9A8389837C836B8312
:10164000F894E981FA818181882379F08B819C81EA
:1016500029813A8142E0BC01C9010E945D0578946C
:101660000E9433081E821D8215C0E981FA8184819F
:101670009581009731F0789484E190E09E838D838A
:1016800009C0E981FA818B819C8195838483789458
:101690001E821D828D819E8126960FB6F894DEBF34
:1016A0000FBECDBFDF91CF910895CF93DF93CDB71C
:1016B000DEB727970FB6F894DEBF0FBECDBF8B8382
:1016C0007D836C8380918E04882339F0EC81FD81C9
:1016D0008DE880831F821E8267C0F8948B81882FDB
:1016E00090E0880F991FFC01EF5DF94F8081918197
:1016F000009741F07894EC81FD8188E280831F821D
:101700001E8252C08B81882F90E0880F991FFC01A8
:10171000EF5DF94F81E090E09183808380918B04AD
:1017200090918C049A83898389819A810097A1F48E
:101730008B81882F90E0880F991FFC01EF5DF94F96
:10174000118210827894EC81FD8184E0808389810C
:101750009A819F838E8328C0E0918B04F0918C0442
:101760008481958190938C0480938B047894E98193
:10177000FA8184E080838B81882F90E0982F8827DE
:101780008F6FE981FA8193838283E981FA811582DF
:10179000148289819A810E94EE06EC81FD8110827B
:1017A00089819A819F838E838E819F8127960FB630
:1017B000F894DEBF0FBECDBFDF91CF910895CF93D8
:1017C000DF93CDB7DEB72B970FB6F894DEBF0FBE11
:1017D000CDBF9F838E83798768875B874A87809197
:1017E0008E04882329F0EA85FB8582E080831FC16F
:1017F000F894EE81FF81828193818F3F39F5EE81EC
:10180000FF81828193818070EE81FF819383828347
:10181000EE81FF8122813381E0918F04F091900469
:101820008585882F90E0822B932BEE81FF81938317
:10183000828380918F0490919004EE81FF81958343
:1018400084837894EA85FB851082F1C0EE81FF8164
:1018500082819381892F99278D83EE81FF818281F7
:1018600093818C83EE81FF81848195819A83898322
:10187000E981FA8195858D81981709F49DC0E091E1
:101880008F04F091900495858C81981708F094C08E
:10189000E981FA818785882F90E0FC01E757FB4FAB
:1018A0009081E981FA8180898923882359F1E9812E
:1018B000FA818785282F30E0E981FA818785882F92
:1018C00090E0FC01E757FB4F8081982FE981FA8176
:1018D000808980958923F901E757FB4F8083F901BF
:1018E000E757FB4F8081882351F4E981FA81818990
:1018F000982F90958091880489238093880481E0B3
:101900008B8301C01B82E981FA818D818587E98102
:10191000FA818585869586958695E981FA818787FE
:10192000E981FA818785882F90E0FC01E55AFE4F16
:101930008081E981FA81818BE981FA8185858770CF
:10194000E981FA818687E981FA818685882F90E08E
:10195000FC01E55AFE4F8081E981FA81808B8B8101
:101960008130F1F4E981FA81918980918804892B91
:1019700080938804E981FA818785282F30E0E98106
:10198000FA818785882F90E0FC01E757FB4F908113
:10199000E981FA818089892BF901E757FB4F808320
:1019A0008D81882F90E0880F991FFC01EF5DF94F22
:1019B00089819A8191838083A0918F04B091900452
:1019C000E0918F04F091900484858061FD0184870B
:1019D000E0918F04F09190048885998593878287A0
:1019E0008E819F810E94160678940E943308F89495
:1019F000E0918F04F09190048485882F90E08071AD
:101A00009070009751F08E819F810E949206789489
:101A1000EA85FB858AE080830AC0E0918F04F0911B
:101A20009004178216827894EA85FB8510822B96A3
:101A30000FB6F894DEBF0FBECDBFDF91CF910895F2
:101A4000CF93DF93CDB7DEB726970FB6F894DEBFFE
:101A50000FBECDBF9C838B8380918E04882329F099
:101A600085E090E09E838D831BC1F894EB81FC811F
:101A700082819381892F99278A83EB81FC818281DE
:101A800093818983E0918F04F091900495858A81F8
:101A9000981771F0E0918F04F091900495858981F9
:101AA000981731F07894E8E7F0E0FE83ED83F8C012
:101AB000E0918F04F091900495858A81981709F040
:101AC0009CC0E0918F04F09190048785282F30E02E
:101AD000E0918F04F09190048785882F90E0FC01BD
:101AE000E757FB4F8081982FE0918F04F09190048D
:101AF000808980958923F901E757FB4F8083F9019D
:101B0000E757FB4F8081882361F4E0918F04F091C7
:101B100090048189982F90958091880489238093DF
:101B20008804E0918F04F091900489818587E09189
:101B30008F04F09190048981869586958695878794
:101B4000A0918F04B0919004E0918F04F0919004E3
:101B50008785882F90E0FC01E55AFE4F8081FD01CA
:101B6000818BE0918F04F091900489818770868742
:101B7000A0918F04B0919004E0918F04F0919004B3
:101B80008685882F90E0FC01E55AFE4F8081FD019B
:101B9000808BE0918F04F09190049189809188046A
:101BA000892B80938804E0918F04F09190048785BD
:101BB000282F30E0E0918F04F09190048785882FE2
:101BC00090E0FC01E757FB4F9081E0918F04F0918A
:101BD00090048089892BF901E757FB4F8083898125
:101BE000882F90E020918F0430919004880F991FE6
:101BF000FC01EF5DF94F318320838A81882F90E0CB
:101C0000880F991FFC01EF5DF94F81E090E091830F
:101C10008083EB81FC818181882391F18B819C8180
:101C200040E160E070E00E945D058983EB81FC810A
:101C3000828193818070EB81FC8193838283EB812D
:101C4000FC81228133818981882F90E0822B932B24
:101C5000EB81FC81938382838981882F90E0880FB8
:101C6000991FFC01EF5DF94F80819181EB81FC812F
:101C70009583848378940E9433081E821D8210C04D
:101C8000EB81FC81828193818F6FEB81FC81938357
:101C90008283EB81FC811582148278941E821D82DE
:101CA0008D819E8126960FB6F894DEBF0FBECDBF04
:101CB000DF91CF910895CF93DF93CDB7DEB726970D
:101CC0000FB6F894DEBF0FBECDBF9C838B8380918F
:101CD0008E04882319F01E821D8232C0F8948091F0
:101CE0008B0490918C049A83898380918B049091CA
:101CF0008C04009751F0E0918B04F0918C04848166
:101D0000958190938C0480938B04789489819A8137
:101D1000009791F0E981FA8183E08083E981FA817B
:101D20008B819C8193838283E981FA81158214825D
:101D300089819A810E94EE0689819A819E838D8392
:101D40008D819E8126960FB6F894DEBF0FBECDBF63
:101D5000DF91CF910895CF93DF93CDB7DEB726976C
:101D60000FB6F894DEBF0FBECDBF9A8389837C8304
:101D70006B835E834D8380918E04882329F0ED81EF
:101D8000FE8182E0808350C0F894E981FA818281EB
:101D90009381009771F0E981FA81828193810197A3
:101DA000E981FA81938382837894ED81FE811082A8
:101DB0003BC0A0918F04B0919004E0918F04F0910A
:101DC000900484858160FD018487E0918F04F09107
:101DD00090048B819C819387828789819A810E945C
:101DE000160678940E943308F894E0918F04F091DD
:101DF00090048485882F90E081709070882351F042
:101E000089819A810E9492067894ED81FE818AE010
:101E100080830AC0E0918F04F091900417821682AB
:101E20007894ED81FE81108226960FB6F894DEBF7D
:101E30000FBECDBFDF91CF910895CF93DF93CDB784
:101E4000DEB724970FB6F894DEBF0FBECDBF9A83DE
:101E50008983F894E981FA818181882369F08981F5
:101E60009A8141E060E070E00E945D0578940E94F4
:101E700033081C821B821AC0E981FA818281938116
:101E80002FEF8F3F920769F0E981FA818281938178
:101E90000196E981FA819383828378941C821B8264
:101EA00005C0789482E390E09C838B838B819C8136
:101EB00024960FB6F894DEBF0FBECDBFDF91CF9151
:101EC0000895AF92BF92CF92DF92EF92FF920F935D
:101ED0001F93CF93DF93CDB7DEB72C970FB6F8944F
:101EE000DEBF0FBECDBF9D838C837F836E835987FA
:101EF00048872A87F8948A85882F90E0880F991F51
:101F0000FC01EF5DF94F80819181009709F050C08D
:101F10008A85882F90E0880F991FFC01EF5DF94FAB
:101F200081E090E0918380837894888599856E81A3
:101F30007F81EC81FD8120E030E0AC01CF010E9487
:101F4000CB019B838A838A819B81AA24BB24CC24D6
:101F5000DD24EE24FF24870120E030E040E050E063
:101F6000BC018A850E94520989838981882371F482
:101F7000F894809185048F5F809385047894809194
:101F8000F103813079F40E9433080CC0F8948A85FB
:101F9000882F90E0880F991FFC01EF5DF94F1182A7
:101FA000108278948981282F30E03C872B8705C0E8
:101FB000789488E290E09C878B878B859C852C9613
:101FC0000FB6F894DEBF0FBECDBFDF91CF911F914A
:101FD0000F91FF90EF90DF90CF90BF90AF9008955A
:101FE000CF93DF93CDB7DEB728970FB6F894DEBF57
:101FF0000FBECDBF8E8380918E04882329F08FE39E
:1020000090E098878F83F6C0F8948E818F3F31F4EB
:10201000E0918F04F091900485858E838E81882FC6
:1020200090E0880F991FFC01EF5DF94F808191814D
:102030009B838A838A819B81009709F4D6C0EA81B9
:10204000FB818785282F30E0EA81FB818785882FF7
:1020500090E0FC01E757FB4F8081982FEA81FB81DC
:10206000808980958923F901E757FB4F8083F90127
:10207000E757FB4F8081882351F4EA81FB818189F6
:10208000982F909580918804892380938804EA8111
:10209000FB81868197819D838C838C819D810097B4
:1020A000A1F1EA81FB818785482F50E0EA81FB811D
:1020B0008785282F30E08C819D81820F931FFC0142
:1020C00036968081982FEA81FB81808980958923CB
:1020D000282F8C819D81840F951FFC0136962083CB
:1020E0008C819D81840F951FFC0136968081882309
:1020F00061F4EC81FD818181982FEA81FB818189E6
:1021000080958923EC81FD818183EA81FB8113869F
:102110001286EA81FB8114868091F0038F3F29F0BB
:102120008091F0038F5F8093F00378940E945605AE
:10213000F8948091F003882329F08091F003815076
:102140008093F0038A819B810E94340380918504EF
:102150008150809385048E81882F90E0880F991F8D
:10216000FC01EF5DF94F11821082EA81FB818481CD
:102170009581009781F4EA81FB810280F381E02D53
:1021800015821482EA81FB81828193819093F90305
:102190008093F80316C0EA81FB81A481B581EA81AE
:1021A000FB8182819381FD0193838283EA81FB819C
:1021B000A281B381EA81FB8184819581FD019583B0
:1021C00084838091820490918304EA81FB819383CC
:1021D00082838A819B819093830480938204789484
:1021E0000E94330818861F8205C078948CE390E023
:1021F00098878F838F81988528960FB6F894DEBFD5
:102200000FBECDBFDF91CF910895CF93DF93CDB7B0
:10221000DEB727970FB6F894DEBF0FBECDBF8D8314
:102220008D818F3F71F4F894E0918F04F0919004C8
:1022300082898C8378948C81282F30E03F832E8391
:102240001FC0F8948D81882F90E0880F991FFC01A2
:10225000EF5DF94F808191819A83898389819A8189
:10226000009731F0E981FA818EE3828B1B8202C0F4
:102270008BE08B8378948B81282F30E03F832E83F3
:102280008E819F8127960FB6F894DEBF0FBECDBF1B
:10229000DF91CF910895CF93DF93CDB7DEB7259728
:1022A0000FB6F894DEBF0FBECDBF8B83F8948B8141
:1022B000882F90E0880F991FFC01EF5DF94F808116
:1022C00091819A83898389819A81009731F47894E6
:1022D00084E690E09D838C8346C0E981FA81848501
:1022E000882F90E0887090700097C1F1E981FA81A1
:1022F0008485877FE981FA818487E981FA818485F1
:10230000882341F5E981FA8182859385009711F54B
:10231000E981FA81918980918804892B80938804CE
:10232000E981FA818785282F30E0E981FA81878564
:10233000882F90E0FC01E757FB4F9081E981FA81FB
:102340008089892BF901E757FB4F808378940E949D
:10235000330801C078941D821C8205C0789485E6FC
:1023600090E09D838C838C819D8125960FB6F89497
:10237000DEBF0FBECDBFDF91CF910895CF93DF9326
:10238000CDB7DEB726970FB6F894DEBF0FBECDBF30
:102390008C83F8948C818F3F49F4E0918F04F09105
:1023A000900485858C8381E08B830CC0E0918F0441
:1023B000F091900495858C81981719F481E08B83B6
:1023C00001C01B828C81882F90E0880F991FFC012F
:1023D000EF5DF94F808191819A83898389819A8108
:1023E000009731F478948AE590E09E838D8337C01E
:1023F000E981FA818785282F30E0E981FA81878594
:10240000882F90E0FC01E757FB4F8081982FE981EE
:10241000FA81808980958923F901E757FB4F8083F2
:10242000F901E757FB4F8081882351F4E981FA8154
:102430008189982F909580918804892380938804BE
:10244000E981FA8184858860E981FA8184877894BA
:102450008B81813011F40E9433081E821D828D8190
:102460009E8126960FB6F894DEBF0FBECDBFDF91DA
:10247000CF910895CF93DF93CDB7DEB722970FB6F4
:10248000F894DEBF0FBECDBF9A83898389819A817C
:10249000009709F43CC0F894E0918F04F091900407
:1024A0008785282F30E0E0918F04F0919004878594
:1024B000882F90E0FC01E757FB4F8081982FE09137
:1024C0008F04F0919004808980958923F901E75762
:1024D000FB4F8083F901E757FB4F8081882361F42C
:1024E000E0918F04F09190048189982F90958091CC
:1024F0008804892380938804E0918F04F0919004EC
:1025000089819A819387828778940E9433082296E2
:102510000FB6F894DEBF0FBECDBFDF91CF91089507
:10252000EF92FF920F931F93CF93DF93CDB7DEB758
:102530002D970FB6F894DEBF0FBECDBF8F8368878F
:1025400049873B872A878F81882359F48885882388
:1025500041F48985882329F48A859B85009709F4AD
:10256000A3C088858C3328F081E590E09D878C8717
:102570009FC089858C3328F082E590E09D878C8709
:1025800097C08A859B8523E0883E920728F083E5E3
:1025900090E09D878C878CC08F81882F90E0A0E091
:1025A000B0E020E13EE040E050E0BC01CD010E94FF
:1025B000FC197B018C018885882F90E0A0E0B0E0B9
:1025C0002CE330E040E050E0BC01CD010E94FC195A
:1025D000DC01CB01A8019701280F391F4A1F5B1F9F
:1025E0008985882F90E0A0E0B0E0820F931FA41FA0
:1025F000B51F2DE330E040E050E0BC01CD010E946A
:10260000FC197B018C018A859B85CC01A0E0B0E0A0
:102610002DE330E040E050E0BC01CD010E94FC1908
:10262000DC01CB0188519E4FAF4FBF4F28EE33E006
:1026300040E050E0BC01CD010E941B1ADA01C90143
:102640008E0D9F1DA01FB11F8B839C83AD83BE8306
:102650008B819C81AD81BE81CD01AA27BB279A8346
:1026600089838B819C81AD81BE81A070B0708B838A
:102670009C83AD83BE838B819C810E943A120DC0E6
:1026800080E090E80E943A1280E090E80E943A12BE
:1026900089819A8101979A83898389819A81009798
:1026A00079F71D861C8604C084E590E09D878C87A1
:1026B0008C859D852D960FB6F894DEBF0FBECDBFDD
:1026C000DF91CF911F910F91FF90EF9008950E949D
:1026D00049030091F10303950093F103E09186040F
:1026E000F0918704C191CDBFD191DEBF0F910FBF93
:1026F0000F910BBFFF91EF91DF91CF91BF91AF9100
:102700009F918F917F916F915F914F913F912F9109
:102710001F910F91FF90EF90DF90CF90BF90AF90FF
:102720009F908F907F906F905F904F903F902F90F1
:102730001F900F9008950F921F922F923F924F92E9
:102740005F926F927F928F929F92AF92BF92CF9241
:10275000DF92EF92FF920F931F932F933F934F932C
:102760005F936F937F938F939F93AF93BF93CF9319
:10277000DF93EF93FF930BB70F930FB70F93E09196
:102780008F04F0919004CDB7C193DEB7D1930E942E
:1027900049030091F6030093F703E0918604F0915A
:1027A0008704E0938F04F0939004C191CDBFD19141
:1027B000DEBF0F910FBF0F910BBFFF91EF91DF9124
:1027C000CF91BF91AF919F918F917F916F915F91C9
:1027D0004F913F912F911F910F91FF90EF90DF90BC
:1027E000CF90BF90AF909F908F907F906F905F90B1
:1027F0004F903F902F901F900F9008950E94490393
:102800000091F6030093F703E0918604F0918704AA
:10281000E0938F04F0939004C191CDBFD191DEBFBE
:102820000F910FBF0F910BBFFF91EF91DF91CF91F0
:10283000BF91AF919F918F917F916F915F914F91D8
:102840003F912F911F910F91FF90EF90DF90CF90CC
:10285000BF90AF909F908F907F906F905F904F90C0
:102860003F902F901F900F9008950F921F922F92DC
:102870003F924F925F926F927F928F929F92AF9210
:10288000BF92CF92DF92EF92FF920F931F932F93FD
:102890003F934F935F936F937F938F939F93AF93E8
:1028A000BF93CF93DF93EF93FF930BB70F930FB7C4
:1028B00000680F9300918E04039500938E040130FD
:1028C00041F4CDB7DEB7E0918F04F0919004C1934D
:1028D000D19300E002BFF0E01F2E78940E94DB0449
:1028E00000000E94B3030F910FBF0F910BBFFF9128
:1028F000EF91DF91CF91BF91AF919F918F917F9198
:102900006F915F914F913F912F911F910F91FF9088
:10291000EF90DF90CF90BF90AF909F908F907F907F
:102920006F905F904F903F902F901F900F90089561
:10293000EF92FF920F931F937B018C0120E030E018
:1029400040E05FE40E94971788237CF020E030E0AD
:1029500040E05FE4C801B7010E9404160E9403181A
:10296000605070408040904804C0C801B7010E9488
:1029700003181F910F91FF90EF900895A0E0B0E031
:10298000E4ECF4E10C943F1A2C015B01FA01DC0148
:102990009C91923008F432C1EB018881823008F4B6
:1029A0002CC1943071F4843009F028C1F201918176
:1029B0008981981709F422C113E6412E12E0512EA5
:1029C0001DC1843009F419C18230A9F4923009F094
:1029D00015C1CA01A20128E0DA010D90AD01EC0198
:1029E0000992CE012150C1F7E5018981E201998167
:1029F0008923818300C1923009F4FFC0E201CA80BB
:102A0000DB80EB018A819B81E2012C813D814E813B
:102A10005F81EB01EC80FD800E811F81B601681B98
:102A2000790BDB0177FF03C0709561957F4F6032B2
:102A300071050CF05DC01A161B065CF56624772440
:102A4000430181E090E0A0E0B0E0062E04C0880FD2
:102A5000991FAA1FBB1F0A94D2F70197A109B109B8
:102A60008E219F21A023B1230097A105B10529F054
:102A7000B1E06B2E712C812C912C04C0169507951A
:102A8000F794E7946A95D2F7E628F72808291929D8
:102A90003BC0AB2BC9F1C60ED71E66247724430179
:102AA00081E090E0A0E0B0E0062E04C0880F991FFE
:102AB000AA1FBB1F0A94D2F70197A109B10982236B
:102AC0009323A423B5230097A105B10529F0A1E024
:102AD0006A2E712C812C912C04C056954795379500
:102AE00027956A95D2F726293729482959290CC0F4
:102AF0008C159D0534F06C0120E030E040E050E0A2
:102B000003C0EE24FF248701E2019981E501898158
:102B1000981709F443C0992339F0E21AF30A040B19
:102B2000150BA801970104C02E193F09400B510B4A
:102B300057FD08C01182D382C28224833583468325
:102B400057831DC081E08183D382C2828827992761
:102B5000DC01821B930BA40BB50B84839583A683A6
:102B6000B7830DC0220F331F441F551F24833583A5
:102B70004683578382819381019793838283248143
:102B8000358146815781DA01C9010197A109B1094F
:102B90008F5F9F4FAF4FBF4328F30BC09183D3820A
:102BA000C2822E0D3F1D401F511F24833583468353
:102BB000578383E080832481358146815781552363
:102BC000D4F4C901AA2797FDA095BA2F81709070FF
:102BD000A070B0705695479537952795822B932B0B
:102BE000A42BB52B84839583A683B783828193819D
:102BF0000196938382832F0101C02501C201E0E188
:102C0000CDB7DEB70C945B1AA0E2B0E0EAE0F6E1E3
:102C10000C94491A69837A838B839C832D833E832A
:102C20004F83588709E0E02EF12CEC0EFD1EB70112
:102C3000CE0101960E9436198E010F5E1F4FB8011A
:102C4000CE0105960E9436198A8991E089278A8BE0
:102C5000AE01475E5F4FB801C7010E94BE140E94DB
:102C60005618E6E0A0960C94651AA0E2B0E0EBE3FB
:102C7000F6E10C94491A69837A838B839C832D83B4
:102C80003E834F83588789E0E82EF12CEC0EFD1E21
:102C9000B701CE0101960E9436198E010F5E1F4FBB
:102CA000B801CE0105960E943619AE01475E5F4F0E
:102CB000B801C7010E94BE140E945618E6E0A09613
:102CC0000C94651AA0E2B0E0E8E6F6E10C943F1A35
:102CD00069837A838B839C832D833E834F835887BC
:102CE00099E0E92EF12CEC0EFD1EB701CE01019604
:102CF0000E9436198E010F5E1F4FB801CE01059656
:102D00000E9436199985923088F089898230C0F006
:102D1000943019F4823029F009C0843029F49230BB
:102D200079F463E672E0C6C0923041F420E09A85FF
:102D30008A89981321E02A87B701BCC0823041F408
:102D400020E09A858A89981321E02A8BB801B2C0C5
:102D5000CD84DE84EF84F8880D891E892F89388D13
:102D600088249924540140E050E060E070E044245D
:102D700055243201E0E0F0E0C60181709070892BAB
:102D8000D9F0800E911EA21EB31EDB01CA01840D74
:102D9000951DA61DB71D40E050E060E070E0801674
:102DA0009106A206B30620F441E050E060E070E036
:102DB000480F591F6A1F7B1F440C551C661C771C4B
:102DC00037FF08C081E090E0A0E0B0E0482A592A2F
:102DD0006A2A7B2A3196E032F10549F0000F111F73
:102DE000221F331FF694E794D794C794C5CF8B89DD
:102DF0009C892B853C85820F931F02969C8F8B8F1D
:102E00001A8E9A858A89981711F081E08A8F2B8D06
:102E10003C8D17C0CA0181709070892B61F0B69407
:102E2000A7949794879480E090E0A0E0B0E8882A87
:102E3000992AAA2ABB2A76956795579547952F5FB9
:102E40003F4F77FDE7CFC9010BC0440F551F661FE9
:102E5000771FB7FC4160880C991CAA1CBB1C01970A
:102E60004030A0E05A07A0E06A07A0E47A0768F3C0
:102E70009C8F8B8FDB01CA018F779070A070B07030
:102E800080349105A105B10561F447FD0AC08114A4
:102E90009104A104B10429F0405C5F4F6F4F7F4F54
:102EA00040784D8F5E8F6F8F78A383E0898FBE014E
:102EB000675E7F4FCB010E945618E0E1A0960C940C
:102EC0005B1AA8E1B0E0E7E6F7E10C94491A6983E0
:102ED0007A838B839C832D833E834F83588789E03D
:102EE000E82EF12CEC0EFD1EB701CE0101960E94DA
:102EF00036198E010F5E1F4FB801CE0105960E9454
:102F000036198985823060F08989823048F0B801AD
:102F1000C7010E94A619282F332727FD309502C02C
:102F20002FEF3FEFC901E6E068960C94651AA8E11F
:102F3000B0E0EDE9F7E10C94491A69837A838B8359
:102F40009C832D833E834F83588789E0E82EF12CA4
:102F5000EC0EFD1EB701CE0101960E9436198E01BE
:102F60000F5E1F4FB801CE0105960E943619898564
:102F7000823060F08989823048F0B801C7010E9430
:102F8000A619282F332727FD309502C02FEF3FEFDA
:102F9000C901E6E068960C94651AA8E1B0E0E3ED9B
:102FA000F7E10C94491A69837A838B839C832D8380
:102FB0003E834F83588789E0E82EF12CEC0EFD1EEE
:102FC000B701CE0101960E9436198E010F5E1F4F88
:102FD000B801CE0105960E9436198985823060F0CD
:102FE0008989823048F0B801C7010E94A619282FAC
:102FF000332727FD309502C021E030E0C901E6E02B
:1030000068960C94651AACE0B0E0E9E0F8E10C9445
:103010004D1A69837A838B839C83BE016B5F7F4FDC
:10302000CE0101960E9436198D818230A9F182303D
:1030300098F1843021F48E81882359F40FC02F81B8
:10304000388537FD29C06E812F31310564F0662344
:1030500029F020E030E040E050E822C02FEF3FEFC1
:103060004FEF5FE71DC08EE190E0821B930B298537
:103070003A854B855C8504C05695479537952795CD
:103080008A95D2F7662361F0509540953095219549
:103090003F4F4F4F5F4F04C020E030E040E050E032
:1030A000CA01B901E2E02C960C94691A9F92AF9282
:1030B000BF92CF92DF92EF92FF920F931F93EE2475
:1030C000FF248701FC01248135814681578191804D
:1030D0008081823010F44061A2C0843009F49BC02A
:1030E000823029F420E030E040E050E005C02115B6
:1030F00031054105510519F4E0E0F0E092C082810C
:1031000093816FEF823896070CF05AC062E87FEF28
:10311000681B790B6A3171052CF020E030E040E04B
:1031200050E02AC0AA24BB24650181E090E0A0E021
:10313000B0E0062E04C0880F991FAA1FBB1F0A9477
:10314000D2F70197A109B10982239323A423B523C0
:103150000097A105B10529F071E0A72EB12CC12C73
:10316000D12C04C056954795379527956A95D2F787
:103170002A293B294C295D29DA01C9018F779070F2
:10318000A070B07080349105A105B10539F427FF16
:1031900009C0205C3F4F4F4F5F4F04C0215C3F4F41
:1031A0004F4F5F4F80E090E0203060E0360760E0F6
:1031B000460760E4560710F081E090E0FC0123C070
:1031C0008038910544F5FC01E158FF4FDA01C9014F
:1031D0008F779070A070B07080349105A105B10513
:1031E00039F427FF09C0205C3F4F4F4F5F4F04C0A9
:1031F000215C3F4F4F4F5F4F57FF05C05695479596
:1032000037952795319687E05695479537952795B9
:103210008A95D1F706C020E030E040E050E0EFEFC3
:10322000F0E0E22EF32E942F9F77802F8078892B69
:103230009E2F9795992797958F77082F092B9E2F6B
:103240009695812F8078892B9794992497948F77DE
:10325000182F1929C801B7011F910F91FF90EF9006
:10326000DF90CF90BF90AF909F900895CF93DF9362
:10327000FC01DB01208131819281492F4F7750E0A1
:10328000991F9927991F8381E82FEE0FE92B6E2F45
:1032900070E0881F8827881FED018983EE2371F570
:1032A000211531054105510511F482E02FC06E57FB
:1032B0007040FD017383628367E0220F331F441F58
:1032C000551F6A95D1F783E08C930AC0220F331FF4
:1032D000441F551FED018A819B8101979B838A833F
:1032E0002030E0E03E07E0E04E07E0E45E0770F3E8
:1032F000ED012C833D834E835F8325C0EF3F79F43E
:10330000211531054105510519F484E08C931BC04A
:1033100044FF03C081E08C9311C01C920FC06F5713
:103320007040ED017B836A8383E08C9387E0220FFA
:10333000331F441F551F8A95D1F75064FD01248324
:10334000358346835783DF91CF910895CF93DF93E1
:10335000DC01FB019C91923008F446C080818230F0
:1033600008F442C0943049F4ED016981843079F564
:10337000818190E0861B91093CC0843021F092301D
:1033800031F48230A1F18181882371F52AC0ED01E9
:1033900069818230E1F081816817C9F4ED012A81E9
:1033A0003B8182819381821793078CF0281739071C
:1033B000B4F0ED018C819D81AE81BF812481358186
:1033C00046815781281739074A075B0718F4662397
:1033D00041F40AC082179307A407B50740F4662397
:1033E00019F48FEF9FEF05C081E090E002C080E00C
:1033F00090E0DF91CF910895629FD001739FF0011B
:10340000829FE00DF11D649FE00DF11D929FF00D74
:10341000839FF00D749FF00D659FF00D9927729FAB
:10342000B00DE11DF91F639FB00DE11DF91FBD0136
:10343000CF0111240895A1E21A2EAA1BBB1BFD0186
:103440000DC0AA1FBB1FEE1FFF1FA217B307E40783
:10345000F50720F0A21BB30BE40BF50B661F771FDB
:10346000881F991F1A9469F76095709580959095BB
:103470009B01AC01BD01CF0108952F923F924F9265
:103480005F926F927F928F929F92AF92BF92CF92F4
:10349000DF92EF92FF920F931F93CF93DF93CDB7FD
:1034A000DEB7CA1BDB0B0FB6F894DEBF0FBECDBF75
:1034B00009942A88398848885F846E847D848C8446
:1034C0009B84AA84B984C884DF80EE80FD800C814F
:1034D0001B81AA81B981CE0FD11D0FB6F894DEBF32
:0A34E0000FBECDBFED010895FFCF30
:1034EA0068656C6C6F20686F772061726520796FF0
:1034FA007520616C70686162657473206120622056
:10350A0063206420652066206720680D0061616180
:10351A006161616161616161616161616161616191
:10352A0061616161610D00676F6F64206D6F726E1A
:10353A00696E6720696E6469610D000102040810F2
:10354A002040800000010002000100030001000287
:10355A000001000400010002000100030001000252
:10356A000001000500010002000100030001000241
:10357A000001000400010002000100030001000232
:10358A000001000600010002000100030001000220
:10359A000001000400010002000100030001000212
:1035AA000001000500010002000100030001000201
:1035BA0000010004000100020001000300010002F2
:1035CA0000010007000100020001000300010002DF
:1035DA0000010004000100020001000300010002D2
:1035EA0000010005000100020001000300010002C1
:1035FA0000010004000100020001000300010002B2
:10360A00000100060001000200010003000100029F
:10361A000001000400010002000100030001000291
:10362A000001000500010002000100030001000280
:10363A000001000400010002000100030001000271
:0C364A0000010000000000000000000073
:00000001FF
