:060000000A128A11122809
:10000800FE00030EF0000408F1000A08F200831253
:1000180003137F08F3000A128A113C280A128A1176
:100028001528F501F60183010A128A111B28831687
:10003800031386018312031386018B178B16013075
:1000480083160313810005308312031381000330E4
:100058007606031D3128E8307506031D2B28FF306E
:10006800F4007408831203138606F501F6012B28A1
:100078008B130130F5070318F60A0030F607053030
:1000880081000B118B177308FF0072088A00710832
:0C0098008400700E8300FE0E7E0E090036
:02400E0039FF78
:00000001FF
