:100000000C9446000C9465000C9465000C946500FB
:100010000C9465000C9465000C9465000C946500CC
:100020000C9465000C9465000C9465000C946500BC
:100030000C9465000C9465000C9465000C946500AC
:100040000C9490130C9465000C9465000C9465005E
:100050000C9465000C9465000C9465000C9465008C
:100060000C9465000C9465000C9465000C9465007C
:100070000C9465000C9465000C9465000C9465006C
:100080000C9465000C9465000C94650011241FBE4F
:10009000CFEFD0E1DEBFCDBF12E0A0E0B1E0EAE6F5
:1000A000F8E200E00BBF02C007900D92AC31B1073F
:1000B000D9F715E0ACE1B2E001C01D92AB36B10753
:1000C000E1F70E94EA000C9434140C940000CF93E2
:1000D000DF93CDB7DEB7EBE3F0E08FEF808324EF63
:1000E00031E040E060E080E00E94EB11EBE3F0E003
:1000F00010822AEF30E040E060E080E00E94EB11E7
:1001000085E00E94A610E7CFCF93DF93CDB7DEB78F
:100110006B970FB6F894DEBF0FBECDBFCE0103962E
:10012000988F8F8BA0E0B1E0BA8FA98FB7E0BB8F1B
:10013000E98DFA8D0080898D9A8D01969A8F898F2D
:10014000AF89B88D0C92EF89F88D3196F88FEF8BCF
:10015000FB8DF150FB8F8B8D882351F78DE0FE01D5
:100160003A96DF01982F1D929A95E9F71A82198223
:1001700019C0ACE2B0E029813A81CE010396FC01BE
:10018000E20FF31F80818C93EBE2F0E08081882FF7
:1001900090E0807290700097B9F389819A810196FE
:1001A0009A83898329813A81CE010396FC01E20F6B
:1001B000F31F80818823E9F624EF31E040E060E01E
:1001C00080E00E94EB1186E00E94A61085E00E946C
:1001D0001911CCCFCF93DF93CDB7DEB7EAE3F0E0D0
:1001E0008FEF8083EBE2F0E01082EAE2F0E088E15A
:1001F0008083E5E9F0E086E08083E9E2F0E087E6ED
:100200008083E7E5F0E081E08083E3E5F0E087E0EC
:1002100080830E94E3028BE992E0E7E6F0E026E0CB
:10022000AC016FEF70E0CF010E94BC0E8BE193E058
:10023000E4E8F0E025E0AC016FEF70E0CF010E9450
:10024000BC0E0E94B403DF91CF910895CF93DF934A
:10025000CDB7DEB72C970FB6F894DEBF0FBECDBF7B
:100260009E838D8378876F835A8749873C872B8746
:1002700089859A859C838B838D819E819A838983CE
:100280008981EB81FC8180838B819C8101979C8398
:100290008B8389819A81892F9927EB81FC818083C7
:1002A0008B819C8101979C838B83EB81FC811082E5
:1002B0008B819C8101979C838B83EB81FC811082D5
:1002C0008B819C8101979C838B83EB81FC811082C5
:1002D0008B819C8101979C838B83EB81FC811082B5
:1002E0008B819C8101979C838B83EB81FC811082A5
:1002F0008B819C8101979C838B83EB81FC81108295
:100300008B819C8101979C838B83EB81FC81108284
:100310008B819C8101979C838B83EB81FC81108274
:100320008B819C8101979C838B83EB81FC81108264
:100330008B819C8101979C838B83EB81FC81108254
:100340008B819C8101979C838B83EB81FC81108244
:100350008B819C8101979C838B83EB81FC81108234
:100360008B819C8101979C838B83EB81FC81108224
:100370008B819C8101979C838B83EB81FC81108214
:100380008B819C8101979C838B83EB81FC81108204
:100390008B819C8101979C838B83EB81FC811082F4
:1003A0008B819C8101979C838B83EB81FC811082E4
:1003B0008B819C8101979C838B83EB81FC811082D4
:1003C0008B819C8101979C838B83EB81FC811082C4
:1003D0008B819C8101979C838B83EB81FC811082B4
:1003E0008B819C8101979C838B83EB81FC811082A4
:1003F0008B819C8101979C838B83EB81FC81108294
:100400008B819C8101979C838B83EB81FC81108283
:100410008B819C8101979C838B83EB81FC81108273
:100420008B819C8101979C838B838F8198859A8394
:1004300089838981EB81FC8180838B819C810197F9
:100440009C838B8389819A81892F9927EB81FC81F9
:1004500080838B819C8101979C838B83EB81FC81C2
:1004600010828B819C8101979C838B83EB81FC8123
:1004700010828B819C8101979C838B83EB81FC8113
:1004800010828B819C8101979C838B83EB81FC8103
:1004900010828B819C8101979C838B83EB81FC81F3
:1004A00010828B819C8101979C838B83EB81FC81E3
:1004B00010828B819C8101979C838B83EB81FC81D3
:1004C00010828B819C8101979C838B83EB81FC81C3
:1004D00080E880838B819C8101979C838B838B81B7
:1004E0009C812C960FB6F894DEBF0FBECDBFDF9176
:1004F000CF910895CF93DF93CDB7DEB722970FB694
:10050000F894DEBF0FBECDBF9A83898322960FB6C3
:10051000F894DEBF0FBECDBFDF91CF910895CF938A
:10052000DF93CDB7DEB722970FB6F894DEBF0FBECC
:10053000CDBF9A83898322960FB6F894DEBF0FBE93
:10054000CDBFDF91CF910895CF93DF93CDB7DEB7C5
:10055000DF91CF910895CF93DF93CDB7DEB7DF91D1
:10056000CF910895CF93DF93CDB7DEB7DF91CF91D1
:100570000895CF93DF93CDB7DEB7DF91CF91089584
:10058000CF93DF93CDB7DEB7DF91CF910895CF93AF
:10059000DF93CDB7DEB7DF91CF910895CF93DF938F
:1005A000CDB7DEB722970FB6F894DEBF0FBECDBF32
:1005B0009A83898322960FB6F894DEBF0FBECDBF13
:1005C000DF91CF910895CF93DF93CDB7DEB70E942F
:1005D000B9020E94BE060E94DD060E943B070E94EF
:1005E00076060E9417070E9429070E94C002DF9129
:1005F000CF910895CF93DF93CDB7DEB780911D03E0
:10060000813049F48091BA038F3F29F08091BA0379
:100610008F5F8093BA03DF91CF910895CF93DF93DB
:10062000CDB7DEB780911D03813009F060C0F8942A
:100630008091BA03882329F08091BA038150809376
:10064000BA038091BA03882309F050C080911C033B
:10065000882309F04BC08091B403882F90E0FC01FF
:10066000E45EFE4F80818093B9038091B903282F07
:10067000220F220F220F8091B903882F90E0FC01F6
:10068000EB54FC4F8081882F90E0FC01E45EFE4F2C
:100690008081820F80932203909122038091230313
:1006A000981721F180912203882F90E0880F991FDD
:1006B000FC01E35BFA4F808191819093B3038093B7
:1006C000B2038091A6039091A703A091A803B091D3
:1006D000A9030196A11DB11D8093A6039093A703C2
:1006E000A093A803B093A9030E9459137894DF91B3
:1006F000CF910895CF93DF93CDB7DEB780911D03DF
:10070000813059F4F89480911C038F3F29F0809137
:100710001C038F5F80931C037894DF91CF91089521
:10072000CF93DF93CDB7DEB780911D038130C9F43D
:10073000F89480911C03882399F080911C038150C8
:1007400080931C0380911C03882341F48091BA0399
:10075000882321F478940E948E0703C0789401C006
:100760007894DF91CF910895CF93DF93CDB7DEB723
:1007700022970FB6F894DEBF0FBECDBF80911D0348
:100780008823E9F58091B403882F90E0FC01E45EB2
:10079000FE4F80818A838A81882F90E0FC01EB5490
:1007A000FC4F8081882F90E0FC01E45EFE4F808149
:1007B00089838A81982F990F990F990F8981890FC1
:1007C000809322038091220380932303809122034C
:1007D000882F90E0880F991FFC01E35BFA4F80811E
:1007E00091819093B3038093B2038091B20390916F
:1007F000B3039093BC038093BB030E94C212229662
:100800000FB6F894DEBF0FBECDBFDF91CF91089534
:10081000CF93DF93CDB7DEB782E090E00E949511D1
:10082000F89410921E0310921F031092200310924E
:10083000210378948DE390E00E949511F8948091C3
:100840001E0390911F03A0912003B0912103809378
:10085000AA039093AB03A093AC03B093AD0381E0E4
:1008600080934C057894DF91CF910895CF93DF93D7
:10087000CDB7DEB722970FB6F894DEBF0FBECDBF5F
:100880000E94B20280911D03813009F058C080910E
:100890002403909125039A8389834BC0F894E981BE
:1008A000FA81828593850097E9F1E981FA81828551
:1008B00093850197E981FA8193878287E981FA819B
:1008C00082859385009771F5E981FA818485882F67
:1008D00090E0887090700097F9F4E981FA8191892D
:1008E0008091B403892B8093B403E981FA818785D1
:1008F000282F30E0E981FA818785882F90E0FC017C
:10090000EB54FC4F9081E981FA818089892BF901B0
:10091000EB54FC4F808306C0E981FA8181E090E0CE
:1009200093878287E981FA81828193819A8389837F
:100930007894E981FA8185858C3009F0AFCF2296D1
:100940000FB6F894DEBF0FBECDBFDF91CF910895F3
:10095000CF93DF93CDB7DEB78CEF90E0DF91CF91EF
:100960000895CF93DF93CDB7DEB7DF91CF91089590
:10097000CF93DF93CDB7DEB72C970FB6F894DEBFD9
:100980000FBECDBF998788877B876A874C87E885AC
:10099000F9858181882F90E0FC01E45EFE4F808123
:1009A0008C838C81882F90E0FC01EC5EFE4F80816F
:1009B0008A838C81282F30E088859985820F931F48
:1009C000FC0136968081882F90E0FC01E45EFE4FAA
:1009D00080818D838D81882F90E0FC01EC5EFE4F3D
:1009E00080818B838C81982F990F990F990F8D811E
:1009F000890F89838C81482F50E08C81282F30E02B
:100A000088859985820F931FFC0136968081982FE7
:100A10008B8180958923282F88859985840F951F40
:100A2000FC013696208388859985840F951FFC01EB
:100A300036968081882351F4E885F9858181982F45
:100A40008A8180958923E885F98581838981882F2A
:100A500090E0880F991FFC01E35BFA4F8081918140
:100A60009F838E83EE81FF8113861286EE81FF8144
:100A700017821682EE81FF818A859B859187808708
:100A8000EE81FF818485982F8C8580958923EE8166
:100A9000FF818487EE81FF8184858823B1F4909162
:100AA000B4038A81892B8093B4038C81282F30E092
:100AB0008C81882F90E0FC01EB54FC4F90818B815E
:100AC000892BF901EB54FC4F80838981882F90E0BA
:100AD0002C960FB6F894DEBF0FBECDBFDF91CF913D
:100AE0000895CF93DF93CDB7DEB722970FB6F89472
:100AF000DEBF0FBECDBF9A838983E091BB03F09127
:100B0000BC0389819A8197838683E091BB03F0912E
:100B1000BC038785282F30E0E091BB03F091BC0334
:100B20008785882F90E0FC01EB54FC4F8081982F43
:100B3000E091BB03F091BC03808980958923F90182
:100B4000EB54FC4F8083F901EB54FC4F80818823E8
:100B500061F4E091BB03F091BC038189982F9095DB
:100B60008091B40389238093B403E091BB03F09197
:100B7000BC038785482F50E0E091BB03F091BC0394
:100B80008785282F30E089819A81820F931FFC018D
:100B900036969081E091BB03F091BC038089292FA8
:100BA000282B89819A81840F951FFC01369620831A
:100BB000E981FA819181E091BB03F091BC038189C5
:100BC000892BE981FA81818322960FB6F894DEBFE2
:100BD0000FBECDBFDF91CF910895CF93DF93CDB7F7
:100BE000DEB722970FB6F894DEBF0FBECDBF9A8353
:100BF0008983E091BB03F091BC038785482F50E0C7
:100C0000E091BB03F091BC038785282F30E08981F8
:100C10009A81820F931FFC0136968081982FE09174
:100C2000BB03F091BC03808980958923282F89819B
:100C30009A81840F951FFC013696208389819A81C1
:100C4000840F951FFC0136968081882371F4E98119
:100C5000FA818181982FE091BB03F091BC038189D7
:100C600080958923E981FA818183E091BB03F0912A
:100C7000BC031486E091BB03F091BC03178216827B
:100C800022960FB6F894DEBF0FBECDBFDF91CF9195
:100C90000895CF93DF93CDB7DEB724970FB6F894BE
:100CA000DEBF0FBECDBF9C838B83EB81FC811182A5
:100CB0008B819C8106969A838983E981FA811082CF
:100CC00089819A8101969A838983E981FA811082C8
:100CD00089819A8101969A83898324960FB6F89424
:100CE000DEBF0FBECDBFDF91CF910895CF93DF93CD
:100CF000CDB7DEB726970FB6F894DEBF0FBECDBFD7
:100D00008DE394E09C838B8385E494E09A838983CC
:100D10001E821D8218C0EB81FC811082EB81FC8158
:100D200089819A81958384838B819C8108969C8399
:100D30008B8389819A8108969A8389838D819E818C
:100D400001969E838D838D819E818230910518F35B
:100D5000EB81FC811082EB81FC81158214828DE392
:100D600094E09093B8038093B70326960FB6F89457
:100D7000DEBF0FBECDBFDF91CF910895CF93DF933C
:100D8000CDB7DEB71092BA0310921C031092B103D4
:100D900010921D031092A6031092A7031092A803AD
:100DA0001092A90310921E0310921F0310922003A9
:100DB00010922103DF91CF910895CF93DF93CDB7A8
:100DC000DEB724970FB6F894DEBF0FBECDBF1092EA
:100DD000B40385EB93E09A8389831C821B820DC048
:100DE000E981FA81108289819A8101969A838983A7
:100DF0008B819C8101969C838B838B819C8182302B
:100E0000910570F310922303109222031092B30302
:100E10001092B2031092BC031092BB0324960FB63B
:100E2000F894DEBF0FBECDBFDF91CF910895CF9371
:100E3000DF93CDB7DEB78CE394E0E5EFF7E02CE08D
:100E4000AC0160E070E0CF010E94BC0EDF91CF9159
:100E50000895CF93DF93CDB7DEB785EA93E0E9E15C
:100E6000F8E02BE0AC0160E070E0CF010E94BC0E26
:100E7000DF91CF910895CF93DF93CDB7DEB725975C
:100E80000FB6F894DEBF0FBECDBF109225031092AF
:100E900024031D820DC08D81882F90E0880F991F3B
:100EA000FC01E35BFA4F118210828D818F5F8D838D
:100EB0008D818D3080F385E594E09C838B8388E67B
:100EC00094E09A8389831D8213C0EB81FC81898120
:100ED0009A81938382838B819C8143969C838B83AD
:100EE00089819A8143969A8389838D818F5F8D83CF
:100EF0008D818C3050F3EB81FC811382128285E569
:100F000094E09093AF038093AE0325960FB6F894C8
:100F1000DEBF0FBECDBFDF91CF910895CF93DF939A
:100F2000CDB7DEB721970FB6F894DEBF0FBECDBFA9
:100F3000F8948091BA03882309F04DC080911C0376
:100F4000882309F048C08091B403882F90E0FC0109
:100F5000E45EFE4F808189838981282F220F220F32
:100F6000220F8981882F90E0FC01EB54FC4F808197
:100F7000882F90E0FC01E45EFE4F8081820F809319
:100F800022039091220380912303981721F18091ED
:100F90002203882F90E0880F991FFC01E35BFA4F32
:100FA000808191819093B3038093B2038091A603D3
:100FB0009091A703A091A803B091A9030196A11D48
:100FC000B11D8093A6039093A703A093A803B093A9
:100FD000A9030E94F612789421960FB6F894DEBF0A
:100FE0000FBECDBFDF91CF910895CF93DF93CDB7E3
:100FF000DEB722970FB6F894DEBF0FBECDBF9A833F
:101000008983F89480911E0390911F03A09120037F
:10101000B09121030196A11DB11D80931E039093F1
:101020001F03A0932003B093210378940E94C7026A
:10103000E8CFCF93DF93CDB7DEB72B970FB6F894F9
:10104000DEBF0FBECDBF9B878A8704C08AE790E0D2
:101050000E94951180914C058823C1F38091AA03C9
:101060009091AB03A091AC03B091AD0324E630E0C6
:1010700040E050E0BC01CD010E941214DA01C90128
:101080008A839B83AC83BD83F89480911E039091E7
:101090001F03A0912003B0912103809367059093D3
:1010A0006805A0936905B0936A0580911E0390912D
:1010B0001F03A0912003B09121038E839F83A887F3
:1010C000B98710921E0310921F03109220031092F2
:1010D000210378948A819B81AC81BD810097A10511
:1010E000B105E1F08E819F81A885B9852A813B8178
:1010F0004C815D81BC01CD010E941214DA01C9014D
:10110000982F84E6891B89838981882324F089812B
:101110008093B0031BC01092B00318C01092B003AC
:101120008091AA039091AB03A091AC03B091AD0361
:1011300024E630E040E050E0BC01CD010E941214F2
:10114000DA01C9018A839B83AC83BD830E94AB0211
:101150008DE390E00E94951197CFAF92BF92CF920E
:10116000DF92EF92FF920F931F93CF93DF93CDB750
:10117000DEB763970FB6F894DEBF0FBECDBF8B838B
:101180007D836C835F834E8339872887EA86FB865D
:101190000C871D87DF86CE86B98AA88AF89480914D
:1011A000AE039091AF039A83898389819A810097D6
:1011B00009F4A0C0E981FA81828193819093AF0301
:1011C0008093AE037894E981FA818C819D8191832B
:1011D0008083E981FA818B818587E981FA81148690
:1011E000E981FA8113861286E981FA81128A8B815C
:1011F000869586958695E981FA818787E981FA81C6
:101200008785882F90E0FC01EC5EFE4F8081E981AC
:10121000FA81818B8B818770E981FA818687E981E8
:10122000FA818685882F90E0FC01EC5EFE4F80817C
:10123000E981FA81808BE981FA8117821682E9813E
:10124000FA811186108689819A810E94CE02898155
:101250009A810E947A02F8948B81882F90E0880FFF
:10126000991FFC01E35BFA4F89819A819183808306
:101270008091240390912503E981FA8193838283ED
:10128000E981FA81158214828091240390912503CB
:10129000009741F0E0912403F091250389819A8120
:1012A0009583848389819A81909325038093240375
:1012B000E981FA8191898091B403892B8093B403E9
:1012C000E981FA818785282F30E0E981FA818785D5
:1012D000882F90E0FC01EB54FC4F9081E981FA816A
:1012E0008089892BF901EB54FC4F808378941B8A09
:1012F0001A8A05C0789486E490E09B8B8A8B8A8951
:101300009B8963960FB6F894DEBF0FBECDBFDF9109
:10131000CF911F910F91FF90EF90DF90CF90BF90F2
:10132000AF900895CF93DF93CDB7DEB726970FB672
:10133000F894DEBF0FBECDBF9C838B838091BA0330
:10134000882319F01E821D8232C0F8948091B70361
:101350009091B8039A8389838091B7039091B803E1
:10136000009751F0E091B703F091B8038481958123
:101370009093B8038093B703789489819A810097FA
:1013800091F0E981FA8181E08083E981FA81138219
:101390001282E981FA818B819C8195838483898182
:1013A0009A810E94490689819A819E838D838D81CD
:1013B0009E8126960FB6F894DEBF0FBECDBFDF919B
:1013C000CF910895CF93DF93CDB7DEB72A970FB6AD
:1013D000F894DEBF0FBECDBF9C838B837E836D836D
:1013E00058874F838091BA03882339F0EF81F885BD
:1013F00082E080831A86198665C0F894EB81FC81AF
:10140000848195819A83898389819A81009769F083
:10141000EB81FC81158214827894EF81F88510822B
:1014200089819A819A8789874DC0A091BB03B09129
:10143000BC03E091BB03F091BC0384858260FD0195
:101440008487E091BB03F091BC038D819E819387DB
:1014500082878B819C810E94710578940E948E07FF
:10146000F894E091BB03F091BC03808591859A8349
:10147000898389819A810097D1F0E091BB03F09133
:10148000BC0311861086E091BB03F091BC03148667
:10149000E091BB03F091BC03178216827894EF8130
:1014A000F885108289819A819A8789870BC08B8100
:1014B0009C810E94ED057894EF81F8858AE0808315
:1014C0001A86198689859A852A960FB6F894DEBF02
:1014D0000FBECDBFDF91CF910895CF93DF93CDB7EE
:1014E000DEB726970FB6F894DEBF0FBECDBF9A8346
:1014F00089837C836B83F894E981FA8181818823D5
:1015000079F08B819C8129813A8142E0BC01C9013B
:101510000E94B80478940E948E071E821D8215C016
:10152000E981FA8184819581009731F0789484E192
:1015300090E09E838D8309C0E981FA818B819C8133
:101540009583848378941E821D828D819E81269648
:101550000FB6F894DEBF0FBECDBFDF91CF910895D7
:10156000CF93DF93CDB7DEB727970FB6F894DEBFE2
:101570000FBECDBF8B837D836C838091BA0388239C
:1015800039F0EC81FD818DE880831F821E8267C067
:10159000F8948B81882F90E0880F991FFC01E35B02
:1015A000FA4F80819181009741F07894EC81FD8120
:1015B00088E280831F821E8252C08B81882F90E038
:1015C000880F991FFC01E35BFA4F81E090E0918363
:1015D00080838091B7039091B8039A83898389812E
:1015E0009A810097A1F48B81882F90E0880F991F32
:1015F000FC01E35BFA4F118210827894EC81FD814B
:1016000084E0808389819A819F838E8328C0E091C2
:10161000B703F091B803848195819093B8038093C8
:10162000B7037894E981FA8184E080838B81882FE5
:1016300090E0982F88278F6FE981FA8193838283C6
:10164000E981FA811582148289819A810E94490672
:10165000EC81FD81108289819A819F838E838E81A6
:101660009F8127960FB6F894DEBF0FBECDBFDF91E6
:10167000CF910895CF93DF93CDB7DEB72B970FB6F9
:10168000F894DEBF0FBECDBF9F838E8379876887B6
:101690005B874A878091BA03882329F0EA85FB8516
:1016A00082E080831FC1F894EE81FF818281938163
:1016B0008F3F39F5EE81FF81828193818070EE81C9
:1016C000FF8193838283EE81FF8122813381E091C8
:1016D000BB03F091BC038585882F90E0822B932B70
:1016E000EE81FF81938382838091BB039091BC0341
:1016F000EE81FF81958384837894EA85FB8510824F
:10170000F1C0EE81FF8182819381892F99278D839A
:10171000EE81FF81828193818C83EE81FF818481C0
:1017200095819A838983E981FA8195858D819817BE
:1017300009F49DC0E091BB03F091BC0395858C81B9
:10174000981708F094C0E981FA818785882F90E086
:10175000FC01EB54FC4F9081E981FA818089892357
:10176000882359F1E981FA818785282F30E0E981C2
:10177000FA818785882F90E0FC01EB54FC4F808133
:10178000982FE981FA81808980958923F901EB54AA
:10179000FC4F8083F901EB54FC4F8081882351F486
:1017A000E981FA818189982F90958091B4038923EA
:1017B0008093B40381E08B8301C01B82E981FA81AD
:1017C0008D818587E981FA818585869586958695BF
:1017D000E981FA818787E981FA818785882F90E0FE
:1017E000FC01EC5EFE4F8081E981FA81818BE98109
:1017F000FA8185858770E981FA818687E981FA8196
:101800008685882F90E0FC01EC5EFE4F8081E981A7
:10181000FA81808B8B818130F1F4E981FA819189A1
:101820008091B403892B8093B403E981FA81878581
:10183000282F30E0E981FA818785882F90E0FC012C
:10184000EB54FC4F9081E981FA818089892BF90161
:10185000EB54FC4F80838D81882F90E0880F991F77
:10186000FC01E35BFA4F89819A8191838083A09187
:10187000BB03B091BC03E091BB03F091BC03848532
:101880008061FD018487E091BB03F091BC038885F2
:101890009985938782878E819F810E9471057894B4
:1018A0000E948E07F894E091BB03F091BC038485FD
:1018B000882F90E080719070009751F08E819F8109
:1018C0000E94ED057894EA85FB858AE080830AC052
:1018D000E091BB03F091BC03178216827894EA85ED
:1018E000FB8510822B960FB6F894DEBF0FBECDBFDE
:1018F000DF91CF910895CF93DF93CDB7DEB72697D1
:101900000FB6F894DEBF0FBECDBF9C838B83809152
:10191000BA03882329F085E090E09E838D831BC164
:10192000F894EB81FC8182819381892F99278A83A6
:10193000EB81FC81828193818983E091BB03F091EB
:10194000BC0395858A81981771F0E091BB03F091F3
:10195000BC0395858981981731F07894E8E7F0E029
:10196000FE83ED83F8C0E091BB03F091BC03958545
:101970008A81981709F09CC0E091BB03F091BC03E9
:101980008785282F30E0E091BB03F091BC03878569
:10199000882F90E0FC01EB54FC4F8081982FE09160
:1019A000BB03F091BC03808980958923F901EB5436
:1019B000FC4F8083F901EB54FC4F8081882361F454
:1019C000E091BB03F091BC038189982F90958091A1
:1019D000B40389238093B403E091BB03F091BC036B
:1019E00089818587E091BB03F091BC03898186954D
:1019F000869586958787A091BB03B091BC03E09143
:101A0000BB03F091BC038785882F90E0FC01EC5E5E
:101A1000FE4F8081FD01818BE091BB03F091BC03FF
:101A2000898187708687A091BB03B091BC03E09148
:101A3000BB03F091BC038685882F90E0FC01EC5E2F
:101A4000FE4F8081FD01808BE091BB03F091BC03D0
:101A500091898091B403892B8093B403E091BB03F7
:101A6000F091BC038785282F30E0E091BB03F09113
:101A7000BC038785882F90E0FC01EB54FC4F9081DC
:101A8000E091BB03F091BC038089892BF901EB54F1
:101A9000FC4F80838981882F90E02091BB03309197
:101AA000BC03880F991FFC01E35BFA4F318320834D
:101AB0008A81882F90E0880F991FFC01E35BFA4F21
:101AC00081E090E091838083EB81FC818181882398
:101AD00091F18B819C8140E160E070E00E94B8044C
:101AE0008983EB81FC81828193818070EB81FC8111
:101AF00093838283EB81FC81228133818981882FCA
:101B000090E0822B932BEB81FC81938382838981EC
:101B1000882F90E0880F991FFC01E35BFA4F8081CA
:101B20009181EB81FC819583848378940E948E0758
:101B30001E821D8210C0EB81FC81828193818F6F98
:101B4000EB81FC8193838283EB81FC81158214827B
:101B500078941E821D828D819E8126960FB6F89400
:101B6000DEBF0FBECDBFDF91CF910895CF93DF933E
:101B7000CDB7DEB726970FB6F894DEBF0FBECDBF48
:101B80009C838B838091BA03882319F01E821D8267
:101B900032C0F8948091B7039091B8039A838983F7
:101BA0008091B7039091B803009751F0E091B7038B
:101BB000F091B803848195819093B8038093B70323
:101BC000789489819A81009791F0E981FA8183E084
:101BD0008083E981FA818B819C8193838283E9816F
:101BE000FA811582148289819A810E94490689812D
:101BF0009A819E838D838D819E8126960FB6F8945F
:101C0000DEBF0FBECDBFDF91CF910895CF93DF939D
:101C1000CDB7DEB726970FB6F894DEBF0FBECDBFA7
:101C20009A8389837C836B835E834D838091BA031F
:101C3000882329F0ED81FE8182E0808350C0F894F2
:101C4000E981FA8182819381009771F0E981FA81BB
:101C5000828193810197E981FA81938382837894C9
:101C6000ED81FE8110823BC0A091BB03B091BC030B
:101C7000E091BB03F091BC0384858160FD01848702
:101C8000E091BB03F091BC038B819C819387828799
:101C900089819A810E94710578940E948E07F89438
:101CA000E091BB03F091BC038485882F90E08170A4
:101CB0009070882351F089819A810E94ED05789473
:101CC000ED81FE818AE080830AC0E091BB03F09140
:101CD000BC03178216827894ED81FE8110822696CD
:101CE0000FB6F894DEBF0FBECDBFDF91CF91089540
:101CF000CF93DF93CDB7DEB724970FB6F894DEBF4E
:101D00000FBECDBF9A838983F894E981FA818181DE
:101D1000882369F089819A8141E060E070E00E9447
:101D2000B80478940E948E071C821B821AC0E98135
:101D3000FA81828193812FEF8F3F920769F0E981C9
:101D4000FA81828193810196E981FA81938382836A
:101D500078941C821B8205C0789482E390E09C8377
:101D60008B838B819C8124960FB6F894DEBF0FBEC7
:101D7000CDBFDF91CF910895AF92BF92CF92DF9206
:101D8000EF92FF920F931F93CF93DF93CDB7DEB700
:101D90002C970FB6F894DEBF0FBECDBF9D838C830A
:101DA0007F836E83598748872A87F8948A85882F8E
:101DB00090E0880F991FFC01E35BFA4F80819181CD
:101DC000009709F050C08A85882F90E0880F991FEE
:101DD000FC01E35BFA4F81E090E09183808378948B
:101DE000888599856E817F81EC81FD8120E030E0DE
:101DF000AC01CF010E9426019B838A838A819B814B
:101E0000AA24BB24CC24DD24EE24FF24870120E077
:101E100030E040E050E0BC018A850E94AD08898333
:101E20008981882371F4F8948091B1038F5F809346
:101E3000B103789480911D03813079F40E948E075C
:101E40000CC0F8948A85882F90E0880F991FFC01B8
:101E5000E35BFA4F1182108278948981282F30E059
:101E60003C872B8705C0789488E290E09C878B871D
:101E70008B859C852C960FB6F894DEBF0FBECDBF28
:101E8000DF91CF911F910F91FF90EF90DF90CF9056
:101E9000BF90AF900895CF93DF93CDB7DEB728976B
:101EA0000FB6F894DEBF0FBECDBF8E838091BA030C
:101EB000882329F08FE390E098878F83F6C0F89409
:101EC0008E818F3F31F4E091BB03F091BC03858597
:101ED0008E838E81882F90E0880F991FFC01E35B31
:101EE000FA4F808191819B838A838A819B810097AD
:101EF00009F4D6C0EA81FB818785282F30E0EA818A
:101F0000FB818785882F90E0FC01EB54FC4F80819A
:101F1000982FEA81FB81808980958923F901EB5410
:101F2000FC4F8083F901EB54FC4F8081882351F4EE
:101F3000EA81FB818189982F90958091B403892350
:101F40008093B403EA81FB81868197819D838C8392
:101F50008C819D810097A1F1EA81FB818785482FC3
:101F600050E0EA81FB818785282F30E08C819D81BC
:101F7000820F931FFC0136968081982FEA81FB81A6
:101F8000808980958923282F8C819D81840F951FBE
:101F9000FC01369620838C819D81840F951FFC0166
:101FA00036968081882361F4EC81FD818181982FB0
:101FB000EA81FB81818980958923EC81FD81818380
:101FC000EA81FB8113861286EA81FB811486809167
:101FD0001C038F3F29F080911C038F5F80931C03AB
:101FE00078940E94B104F89480911C03882329F00E
:101FF00080911C03815080931C038A819B810E94E5
:102000008F028091B10381508093B1038E81882F1C
:1020100090E0880F991FFC01E35BFA4F1182108258
:10202000EA81FB8184819581009781F4EA81FB81BB
:102030000280F381E02D15821482EA81FB81828186
:102040009381909325038093240316C0EA81FB813A
:10205000A481B581EA81FB8182819381FD01938313
:102060008283EA81FB81A281B381EA81FB81848141
:102070009581FD01958384838091AE039091AF0398
:10208000EA81FB81938382838A819B819093AF0352
:102090008093AE0378940E948E0718861F8205C035
:1020A00078948CE390E098878F838F819885289629
:1020B0000FB6F894DEBF0FBECDBFDF91CF9108956C
:1020C000CF93DF93CDB7DEB727970FB6F894DEBF77
:1020D0000FBECDBF8D838D818F3F71F4F894E09159
:1020E000BB03F091BC0382898C8378948C81282F68
:1020F00030E03F832E831FC0F8948D81882F90E0BD
:10210000880F991FFC01E35BFA4F808191819A83CC
:10211000898389819A81009731F0E981FA818EE380
:10212000828B1B8202C08BE08B8378948B81282F5B
:1021300030E03F832E838E819F8127960FB6F894DF
:10214000DEBF0FBECDBFDF91CF910895CF93DF9358
:10215000CDB7DEB725970FB6F894DEBF0FBECDBF63
:102160008B83F8948B81882F90E0880F991FFC0156
:10217000E35BFA4F808191819A83898389819A8177
:10218000009731F4789484E690E09D838C8346C078
:10219000E981FA818485882F90E08870907000979B
:1021A000C1F1E981FA818485877FE981FA81848799
:1021B000E981FA818485882341F5E981FA81828564
:1021C0009385009711F5E981FA8191898091B40393
:1021D000892B8093B403E981FA818785282F30E029
:1021E000E981FA818785882F90E0FC01EB54FC4F50
:1021F0009081E981FA818089892BF901EB54FC4FA8
:10220000808378940E948E0701C078941D821C827E
:1022100005C0789485E690E09D838C838C819D81B8
:1022200025960FB6F894DEBF0FBECDBFDF91CF91DC
:102230000895CF93DF93CDB7DEB726970FB6F89406
:10224000DEBF0FBECDBF8C83F8948C818F3F49F4E5
:10225000E091BB03F091BC0385858C8381E08B8387
:102260000CC0E091BB03F091BC0395858C8198175D
:1022700019F481E08B8301C01B828C81882F90E050
:10228000880F991FFC01E35BFA4F808191819A834B
:10229000898389819A81009731F478948AE590E066
:1022A0009E838D8337C0E981FA818785282F30E0AE
:1022B000E981FA818785882F90E0FC01EB54FC4F7F
:1022C0008081982FE981FA81808980958923F9019D
:1022D000EB54FC4F8083F901EB54FC4F8081882341
:1022E00051F4E981FA818189982F90958091B40306
:1022F00089238093B403E981FA8184858860E98128
:10230000FA81848778948B81813011F40E948E0742
:102310001E821D828D819E8126960FB6F894DEBFA7
:102320000FBECDBFDF91CF910895CF93DF93CDB78F
:10233000DEB722970FB6F894DEBF0FBECDBF9A83EB
:10234000898389819A81009709F43CC0F894E091CF
:10235000BB03F091BC038785282F30E0E091BB03DD
:10236000F091BC038785882F90E0FC01EB54FC4F73
:102370008081982FE091BB03F091BC038089809508
:102380008923F901EB54FC4F8083F901EB54FC4F96
:102390008081882361F4E091BB03F091BC038189C3
:1023A000982F90958091B40389238093B403E09192
:1023B000BB03F091BC0389819A81938782877894CB
:1023C0000E948E0722960FB6F894DEBF0FBECDBFD7
:1023D000DF91CF910895EF92FF920F931F93CF93C8
:1023E000DF93CDB7DEB72D970FB6F894DEBF0FBEE3
:1023F000CDBF8F83688749873B872A878F81882352
:1024000059F48885882341F48985882329F48A85AD
:102410009B85009709F4A3C088858C3328F081E55B
:1024200090E09D878C879FC089858C3328F082E55A
:1024300090E09D878C8797C08A859B8523E0883EA6
:10244000920728F083E590E09D878C878CC08F8170
:10245000882F90E0A0E0B0E020E13EE040E050E0D6
:10246000BC01CD010E94F3137B018C018885882F6C
:1024700090E0A0E0B0E02CE330E040E050E0BC01B0
:10248000CD010E94F313DC01CB01A8019701280FB5
:10249000391F4A1F5B1F8985882F90E0A0E0B0E0BC
:1024A000820F931FA41FB51F2DE330E040E050E0E2
:1024B000BC01CD010E94F3137B018C018A859B85B1
:1024C000CC01A0E0B0E02DE330E040E050E0BC0102
:1024D000CD010E94F313DC01CB0188519E4FAF4F19
:1024E000BF4F28EE33E040E050E0BC01CD010E9438
:1024F0001214DA01C9018E0D9F1DA01FB11F8B831D
:102500009C83AD83BE838B819C81AD81BE81CD01D7
:10251000AA27BB279A8389838B819C81AD81BE8149
:10252000A070B0708B839C83AD83BE838B819C81B4
:102530000E9495110DC080E090E80E94951180E006
:1025400090E80E94951189819A8101979A838983E5
:1025500089819A81009779F71D861C8604C084E5DD
:1025600090E09D878C878C859D852D960FB6F8947D
:10257000DEBF0FBECDBFDF91CF911F910F91FF90B6
:10258000EF9008950E94A40200911D03039500930B
:102590001D03E091B203F091B303C191CDBFD1917E
:1025A000DEBF0F910FBF0F910BBFFF91EF91DF9136
:1025B000CF91BF91AF919F918F917F916F915F91DB
:1025C0004F913F912F911F910F91FF90EF90DF90CE
:1025D000CF90BF90AF909F908F907F906F905F90C3
:1025E0004F903F902F901F900F9008950F921F9241
:1025F0002F923F924F925F926F927F928F929F9213
:10260000AF92BF92CF92DF92EF92FF920F931F9300
:102610002F933F934F935F936F937F938F939F93EA
:10262000AF93BF93CF93DF93EF93FF930BB70F93CA
:102630000FB70F93E091BB03F091BC03CDB7C193EB
:10264000DEB7D1930E94A4020091220300932303DA
:10265000E091B203F091B303E093BB03F093BC03AA
:10266000C191CDBFD191DEBF0F910FBF0F910BBFB5
:10267000FF91EF91DF91CF91BF91AF919F918F919A
:102680007F916F915F914F913F912F911F910F918A
:10269000FF90EF90DF90CF90BF90AF909F908F9082
:1026A0007F906F905F904F903F902F901F900F9072
:1026B00008950E94A4020091220300932303E09155
:1026C000B203F091B303E093BB03F093BC03C19159
:1026D000CDBFD191DEBF0F910FBF0F910BBFFF9107
:1026E000EF91DF91CF91BF91AF919F918F917F91AA
:1026F0006F915F914F913F912F911F910F91FF909B
:10270000EF90DF90CF90BF90AF909F908F907F9091
:102710006F905F904F903F902F901F900F90089573
:102720000F921F922F923F924F925F926F927F92E1
:102730008F929F92AF92BF92CF92DF92EF92FF92D1
:102740000F931F932F933F934F935F936F937F93B9
:102750008F939F93AF93BF93CF93DF93EF93FF93A9
:102760000BB70F930FB700680F930091BA0303954F
:102770000093BA03013041F4CDB7DEB7E091BB035B
:10278000F091BC03C193D19300E002BFF0E01F2E93
:1027900078940E94360400000E940E030F910FBF30
:1027A0000F910BBFFF91EF91DF91CF91BF91AF914F
:1027B0009F918F917F916F915F914F913F912F9159
:1027C0001F910F91FF90EF90DF90CF90BF90AF904F
:1027D0009F908F907F906F905F904F903F902F9041
:1027E0001F900F900895629FD001739FF001829F08
:1027F000E00DF11D649FE00DF11D929FF00D839F90
:10280000F00D749FF00D659FF00D9927729FB00D2C
:10281000E11DF91F639FB00DE11DF91FBD01CF013F
:1028200011240895A1E21A2EAA1BBB1BFD010DC0A5
:10283000AA1FBB1FEE1FFF1FA217B307E407F50770
:1028400020F0A21BB30BE40BF50B661F771F881F4C
:10285000991F1A9469F760957095809590959B01E2
:0A286000AC01BD01CF010895FFCFC8
:10286A0071776572747900000000000000000000B2
:10287A00000000000102040810204080000001004E
:10288A00020001000300010002000100040001002F
:10289A00020001000300010002000100050001001E
:1028AA00020001000300010002000100040001000F
:1028BA0002000100030001000200010006000100FD
:1028CA0002000100030001000200010004000100EF
:1028DA0002000100030001000200010005000100DE
:1028EA0002000100030001000200010004000100CF
:1028FA0002000100030001000200010007000100BC
:10290A0002000100030001000200010004000100AE
:10291A00020001000300010002000100050001009D
:10292A00020001000300010002000100040001008E
:10293A00020001000300010002000100060001007C
:10294A00020001000300010002000100040001006E
:10295A00020001000300010002000100050001005D
:10296A00020001000300010002000100040001004E
:0C297A0002000100030001000200010047
:00000001FF
