:060000000A128A11F02F24
:100F1A00413442344334443445340D340A340034C1
:100F2A00003400347E088A007F08820097270A125C
:100F3A008A118000840A04087D0603190034FF0A16
:100F4A000319FE0A9B2F2030831203139400831681
:100F5A0003139401203084002C30F0000408F100BF
:100F6A000A30F2007008840083130008F300F00AC4
:100F7A007108840073088000F10AF20BB72F8712F8
:100F8A000716871183120313AA01AB012A08203E10
:100F9A008400831380080319E22F2A08203E840064
:100FAA008313000893008C1DD82F8C110130AA07D7
:100FBA000318AB0A0030AB07CB2F0330F2008A309C
:100FCA00F1005630F000F00BE82FF10BE82FF20B8E
:100FDA00E82FEF2FC72F83133630FD000730FE00AE
:100FEA008D30FF002C3084000A128A119B2783015E
:060FFA000A128A11A82F63
:02400E0039FF78
:00000001FF
