:020000040000FA
:10000000600200105101000055010000570100007E
:10001000590100005B0100005D01000000000000CC
:100020000000000000000000000000005F01000070
:100030006101000000000000630100006501000094
:100040006701000067010000670100006701000010
:100050006701000067010000670100006701000000
:1000600067010000670100006701000067010000F0
:1000700067010000670100006701000067010000E0
:1000800067010000670100006701000067010000D0
:1000900067010000670100006701000067010000C0
:1000A00067010000670100006701000067010000B0
:1000B00067010000670100006701000067010000A0
:1000C00067010000670100006701000000F002F80E
:1000D00000F02EF80AA090E8000C82448344AAF1B4
:1000E0000107DA4501D100F023F8AFF2090EBAE8B2
:1000F0000F0013F0010F18BFFB1A43F0010318475C
:1001000050030000600300000023002400250026A7
:10011000103A28BF78C1FBD8520728BF30C148BF6A
:100120000B6070471FB500F062F91FBD10B510BD20
:1001300000F026F91146FFF7F5FF00F033F800F064
:1001400044F903B4FFF7F2FF03BC00F049F90000E3
:1001500008480047FEE7FEE7FEE7FEE7FEE7FEE7AA
:10016000FEE7FEE7FEE7FEE703480449024A044BC8
:1001700070470000CD000000600000106002001019
:1001800060000010002109E0425C384B1A7000BF8B
:10019000364A127D12F0400FFAD0401C425C002A11
:1001A000F2D1704798B02022314910A800F06CF8C5
:1001B0002F4A203207CA0DAB07C314222C492C3119
:1001C00005A800F061F8142229494031684600F082
:1001D0005BF80020274908602749C1F880004FF0EC
:1001E0000800264908604FF04000254908604FF09C
:1001F0005000244908604FF083001C4908734FF0F9
:100200001A0008704FF0030008732DE010A8FFF7E4
:10021000B9FF002400BF00BF1448007D10F0010F9B
:10022000FAD0124800780AA908550AA8005D0D28DE
:1002300002D1002008550AE02A200C49087000BFAE
:100240000A48007D10F0400FFAD0641CE3E700BFBD
:100250000AA90DA800F054F818B905A8FFF792FFF5
:1002600002E06846FFF78EFFD0E7000000C00040C4
:10027000FC0300000CC10F4000C00F40C4C00F4081
:10028000A8C10F4000C0024010B5203AC0F00B805A
:10029000B1E81850203AA0E81850B1E81850A0E88A
:1002A0001850BFF4F5AF5FEA027C24BFB1E81850E4
:1002B000A0E8185044BF18C918C0BDE810405FEA54
:1002C000827C24BF51F8043B40F8043B08BF7047D0
:1002D000D20728BF31F8023B48BF11F8012B28BFD5
:1002E00020F8023B48BF00F8012B70477047704769
:1002F000704700000048704700000010FFFFFFFF3C
:100300004FF0013C50F8042B51F8043B9A4221D1A4
:10031000A2EB0C03934313EACC1317D150F8042B30
:1003200051F8043B9A4215D1A2EB0C03934313EA14
:10033000CC130BD150F8042B51F8043B9A4209D14D
:10034000A2EB0C03934313EACC13DBD04FF0000075
:10035000704700BFD01A01BAB1FA81F101F018015B
:1003600022FA01F0CB40C1F12001DBB2C0B2C01AC9
:100370002CFA01F3D11A914311EAC311E6D1704767
:100380007546FFF7B7FFAE4605006946534620F0B5
:100390000700854618B020B5FFF7E6FEBDE820400F
:1003A0004FF000064FF000074FF000084FF0000B31
:1003B00021F00701AC46ACE8C009ACE8C009ACE8E4
:1003C000C009ACE8C0098D4670470446AFF3008011
:1003D0002046FFF7B6FE00000048704704000010FA
:1003E00001491820ABBEFEE726000200704710B599
:1003F000FFF7F2FF4FF00001016010BD454E54457C
:1004000052205448452050415353574F52440D0AEF
:100410000000000000000000000000007061737325
:10042000776F7264000000000D0A41434345535347
:10043000204752414E5445440D0A00000D0A5452C3
:100440005920414741494E0D0A00000000000000BC
:1004500060040000000000106002000008010000BD
:04000005000000CD2A
:00000001FF
