:100000000C9446000C9465000C9465000C946500FB
:100010000C9465000C9465000C9465000C946500CC
:100020000C9465000C9465000C9465000C946500BC
:100030000C9465000C9465000C9465000C946500AC
:100040000C9465000C9465000C9465000C9465009C
:100050000C9465000C9465000C9465000C9465008C
:100060000C9465000C9465000C9465000C9465007C
:100070000C9465000C9465000C9465000C9465006C
:100080000C9465000C9465000C94650011241FBE4F
:10009000CFEFD0E1DEBFCDBF11E0A0E0B1E0E4E4FE
:1000A000F1E000E00BBF02C007900D92A030B10755
:1000B000D9F711E0A0E0B1E001C01D92A030B10776
:1000C000E1F70E9467000C94A1000C940000CF930C
:1000D000DF93CDB7DEB764970FB6F894DEBF0FBEDF
:1000E000CDBF1BB888E18AB986E08093950087E68A
:1000F00089B920E030E0AE014F5F5F4F02C020E0E1
:1001000030E05F9BFECF8CB1FA01E20FF31F8083DA
:100110008D3019F41082FA0107C02F5F3F4FF1CFE5
:100120008CB95D9BFECF319680818823C9F728E882
:1001300033E188EC90E00197F1F721503040F9F27B
:04014000F8CFFFCF26
:00000001FF
