:100000000A128A11F02F00308A000408840A82073D
:100010000034013400340A34003464340034E834E9
:10002000033410342734253464343A3425346434AA
:0A0030003A34253464340D340034F2
:10085200F100F0013A3071020318352C3030710288
:10086200031C352CF001F00A700C08007E088A0087
:100872007F08820037240A128A118000840A040841
:100882007D0603190034FF0A0319FE0A3B2CF3000C
:10089200F101F20171087307F000700884008317F8
:1008A20080080319080071087307F00070088400BB
:1008B2008317000883120313990083160313981CED
:1008C2005E2C0130F1070318F20A0030F2074B2CBC
:1008D200F401F501701C732C7208F4070318F50A71
:1008E2007308F50701300310F20DF30DFF3E031DEF
:1008F200742C01300310F10CF00CFF3E031D7B2C15
:1009020071087004031D6B2C7508F101F10774085E
:10091200F001F0070800790878040319B92CFD01E9
:10092200FD0AF91BA02C01300310F80DF90DFF3E52
:10093200031D952C0130FC007C08FD07922C7908E0
:100942007B02031DA62C78087A02031CAE2C7808C1
:10095200FA027908031CFB03FB0201300310F90CB5
:10096200F80CFF3E031DAF2C0130FD02031DA02C2D
:100972007B08F901F9077A08F801F80708004534FD
:100982004E3454344534523420345434483445348B
:1009920020344D3449344E345534543445340D34B6
:1009A2000A34003445344E345434453452342034FD
:1009B20054344834453420345334453443344F346A
:1009C2004E3444340D340A34003445344E345434F5
:1009D2004534523420345434483445342034483475
:1009E2004F34553452340D340A340034F501F601D3
:1009F2007108700403192E2DF701F70AF11B0D2D52
:100A020001300310F00DF10DFF3E031D022D0130E8
:100A1200F4007408F707FF2C01300310F50DF60DF2
:100A2200FF3E031D0E2D71087302031D1A2D70085F
:100A32007202031C232D7008F2027108031CF303D7
:100A4200F302751401300310F10CF00CFF3E031D8C
:100A5200242D0130F702031D0D2D7608F101F10757
:100A62007508F001F007080083120313E101E201A7
:100A7200402D0130E1070318E20A0030E2078C1E24
:100A8200402D1A08D90061085C3E8400590883137E
:100A9200800061085C3E84000008990083160313FD
:100AA200981C4F2D8312031361085C3E840083134C
:100AB20000080D3A031D3A2D61085C3E8400800156
:100AC2005C300A128A117425770883120313DB0142
:100AD200DB077608DA01DA075B08D801D8075A087B
:100AE200D701D7070800FD007D08840083130008A2
:100AF200203A031D812D0130F8007808FD07752D7D
:100B02007D0884000008093A03197C2DFB01FC01D1
:100B1200FA017D08840000082D3A031D952D01304D
:100B2200F8007808FA079B2D7D08840000082B3A0C
:100B3200031D9F2D0130F8007808FD077D08840011
:100B420000080A128A1129240A128A11031CCB2DC9
:100B52007C08F101F1077B08F001F0070A30F2008E
:100B62000030F3000A128A1169240A128A117D08E0
:100B72008400831300087007F80071080318710AD3
:100B8200F9007808D03EFB0079080318013EFF3EC9
:100B9200FC009B2D7A080319DA2D7B09F8007C09E9
:100BA200F900F80A0319F90A7808F6007908F7003B
:100BB20008007C08F701F7077B08F601F607080032
:100BC20083120313E8005830DE005E08E1000130B2
:100BD200D707FF30570784000A128A1103200A122E
:100BE2008A11DE005E08E900E9080319B52E6908DA
:100BF200253A0319082E6908DE00680884005E0899
:100C0200831780000130DE005E08E807E82DE2016C
:100C12000130D707FF30570784000A128A110320D8
:100C22000A128A11E900003A0319B52E643A03192F
:100C32001E2E0D3A03191E2EE82D6108840083131F
:100C42000008E400840A0008E5000230DE005E08C5
:100C5200E107E51F352E0330DE005E08E204E409F9
:100C6200E509E40A0319E50AE901E90A6908053A0E
:100C720003195C2E6908DE005E07013E84000A1239
:100C82008A1103200A128A11DF000A128A11032034
:100C92000A128A11E00060086502031D522E5F08E5
:100CA2006402031C5C2E0130DE005E08E90769085D
:100CB200053A031D3B2E6208033903196B2E2D30B2
:100CC200DE00680884005E08831780000130DE00C1
:100CD2005E08E8076908DE005E08E300FF30DE0018
:100CE2005E08E3076308FF3A0319E82D0A30F800AB
:100CF2000030F9006308DE005E07013E84000A123C
:100D02008A1103200A128A11F0000A128A110320A2
:100D12000A128A11F1006508F301F3076408F2016F
:100D2200F2070A128A11F7240A128A117108FB01CA
:100D3200FB077008FA01FA070A128A118C240A12B8
:100D42008A117808303E83120313DF005F08E9003E
:100D52006908DE00680884005E088317800001309D
:100D6200DE005E08E8076F2E6808840083178001A2
:100D720008008316031386010130810083120313D6
:100D82008601B63084004630EA000408EB001130D8
:100D9200EC006A08840083130008ED00EA0A6B087D
:100DA200840083176D088000EB0AEC0BCA2E90308A
:100DB20084002030EA000408EB001330EC006A08DB
:100DC200840083130008ED00EA0A6B08840083178D
:100DD2006D088000EB0AEC0BE02EA3308400333068
:100DE200EA000408EB001330EC006A088400831365
:100DF2000008ED00EA0A6B08840083176D08800082
:100E0200EB0AEC0BF62E2430831603139800903075
:100E12008312031398001930831603139900B63016
:100E22000A128A1148240A128A110A128A113525D5
:100E32000A128A1183120313580883160317DE015C
:100E4200DE0783120313570883160317DD01DD073C
:100E520090300A128A1148240A128A110A128A113F
:100E620035250A128A1183120313580883160317B1
:100E7200E001E00783120313570883160317DF010B
:100E8200DF07A3300A128A1148240A128A110A12B1
:100E92008A1135250A128A11831203135808831600
:100EA2000317E201E207831203135708831603179D
:100EB200E101E10783160317DB01DC015C08803ADC
:100EC200FF0083307F02031D682FE8305B020318A6
:100ED200842FFB30831203130102031C6A2F81014A
:100EE200013083160317DB070318DC0A0030DC0726
:100EF2005C08803AFF0083307F02031D822FE830B6
:100F02005B02031C6A2F013083160317E1070318E3
:100F1200E20A0030E2073C3061066204031DB32F8F
:100F22000130DF070318E00A0030E007E101E201C7
:100F32003C305F066004031DB32F18305D065E046B
:100F4200031DAB2FFF30DD00FF30DE00DF01E001CB
:100F5200E101E2010130DD070318DE0A0030DE079D
:100F6200DF01E0010B3083120313EA006A08D700A5
:100F7200831603175E0883120313D901D907831658
:100F820003175D0883120313D801D80783160317CA
:100F9200600883120313DB01DB07831603175F0864
:100FA20083120313DA01DA07831603176208831226
:100FB2000313DD01DD078316031761088312031390
:100FC200DC01DC07C7300A128A11E1250A128A11F4
:100FD200C7300A128A1148240A128A115B2F83131E
:100FE2005730FD000430FE00C030FF002030840086
:0E0FF2000A128A113B2483010A128A11BA2EB8
:02400E0039FF78
:00000001FF
