:100000000C9446000C9465000C9465000C946500FB
:100010000C9465000C9465000C9465000C946500CC
:100020000C9465000C9465000C9465000C946500BC
:100030000C9465000C9465000C9465000C946500AC
:100040000C9493130C9465000C9465000C9465005B
:100050000C9465000C9465000C9465000C9465008C
:100060000C9465000C9465000C9465000C9465007C
:100070000C9465000C9465000C9465000C9465006C
:100080000C9465000C9465000C94650011241FBE4F
:10009000CFEFD0E1DEBFCDBF12E0A0E0B1E0E0E7FE
:1000A000F8E200E00BBF02C007900D92A035B10747
:1000B000D9F715E0A0E5B2E001C01D92A33AB1075F
:1000C000E1F70E9467000C9437140C940000CF9362
:1000D000DF93CDB7DEB7EBE2F0E01082EAE2F0E0CA
:1000E00088E18083E5E9F0E086E08083E9E2F0E002
:1000F00087E68083E3E5F0E087E08083E7E5F0E0F2
:1001000081E080830E94E6028FEC92E060E071E083
:10011000E7EAF0E024E0AC01CF010E94BF0E83E5E6
:1001200093E06DE271E0EEEEF0E025E0AC01CF018E
:100130000E94BF0E80E090E00E94B90D9093D10222
:100140008093D0020E94B703DF91CF910895CF939F
:10015000DF93CDB7DEB724970FB6F894DEBF0FBE9E
:10016000CDBF9C838B838091D2029091D30220914A
:10017000D0023091D102AC0160E070E0C9010E9470
:10018000090E1A8219821AC0ACE2B0E089819A8104
:100190009C018B819C81F901E80FF91F80818C9370
:1001A000EBE2F0E08081882F90E080729070009701
:1001B000B9F389819A8101969A83898389819A8189
:1001C0009C018B819C81F901E80FF91F80818823B4
:1001D000D9F681E090E00E949811C5CFCF93DF93CC
:1001E000CDB7DEB724970FB6F894DEBF0FBECDBFF4
:1001F0009C838B831A8219821AC0ACE2B0E0898199
:100200009A819C018B819C81F901E80FF91F808103
:100210008C93EBE2F0E08081882F90E08072907008
:100220000097B9F389819A8101969A83898389819C
:100230009A819C018B819C81F901E80FF91F8081D3
:100240008823D9F68091D0029091D1020E947B0E32
:10025000D1CFCF93DF93CDB7DEB72C970FB6F894FD
:10026000DEBF0FBECDBF9E838D8378876F835A8795
:1002700049873C872B8789859A859C838B838D81D1
:100280009E819A8389838981EB81FC8180838B8124
:100290009C8101979C838B8389819A81892F9927DF
:1002A000EB81FC8180838B819C8101979C838B8374
:1002B000EB81FC8110828B819C8101979C838B83D5
:1002C000EB81FC8110828B819C8101979C838B83C5
:1002D000EB81FC8110828B819C8101979C838B83B5
:1002E000EB81FC8110828B819C8101979C838B83A5
:1002F000EB81FC8110828B819C8101979C838B8395
:10030000EB81FC8110828B819C8101979C838B8384
:10031000EB81FC8110828B819C8101979C838B8374
:10032000EB81FC8110828B819C8101979C838B8364
:10033000EB81FC8110828B819C8101979C838B8354
:10034000EB81FC8110828B819C8101979C838B8344
:10035000EB81FC8110828B819C8101979C838B8334
:10036000EB81FC8110828B819C8101979C838B8324
:10037000EB81FC8110828B819C8101979C838B8314
:10038000EB81FC8110828B819C8101979C838B8304
:10039000EB81FC8110828B819C8101979C838B83F4
:1003A000EB81FC8110828B819C8101979C838B83E4
:1003B000EB81FC8110828B819C8101979C838B83D4
:1003C000EB81FC8110828B819C8101979C838B83C4
:1003D000EB81FC8110828B819C8101979C838B83B4
:1003E000EB81FC8110828B819C8101979C838B83A4
:1003F000EB81FC8110828B819C8101979C838B8394
:10040000EB81FC8110828B819C8101979C838B8383
:10041000EB81FC8110828B819C8101979C838B8373
:10042000EB81FC8110828B819C8101979C838B8363
:100430008F8198859A8389838981EB81FC81808370
:100440008B819C8101979C838B8389819A81892FE1
:100450009927EB81FC8180838B819C8101979C8310
:100460008B83EB81FC8110828B819C8101979C8323
:100470008B83EB81FC8110828B819C8101979C8313
:100480008B83EB81FC8110828B819C8101979C8303
:100490008B83EB81FC8110828B819C8101979C83F3
:1004A0008B83EB81FC8110828B819C8101979C83E3
:1004B0008B83EB81FC8110828B819C8101979C83D3
:1004C0008B83EB81FC8110828B819C8101979C83C3
:1004D0008B83EB81FC8180E880838B819C810197F9
:1004E0009C838B838B819C812C960FB6F894DEBF06
:1004F0000FBECDBFDF91CF910895CF93DF93CDB7DE
:10050000DEB722970FB6F894DEBF0FBECDBF9A8339
:10051000898322960FB6F894DEBF0FBECDBFDF9160
:10052000CF910895CF93DF93CDB7DEB722970FB663
:10053000F894DEBF0FBECDBF9A83898322960FB693
:10054000F894DEBF0FBECDBFDF91CF910895CF935A
:10055000DF93CDB7DEB7DF91CF910895CF93DF93CF
:10056000CDB7DEB7DF91CF910895CF93DF93CDB7AD
:10057000DEB7DF91CF910895CF93DF93CDB7DEB78C
:10058000DF91CF910895CF93DF93CDB7DEB7DF91A1
:10059000CF910895CF93DF93CDB7DEB7DF91CF91A1
:1005A0000895CF93DF93CDB7DEB722970FB6F894B7
:1005B000DEBF0FBECDBF9A83898322960FB6F89413
:1005C000DEBF0FBECDBFDF91CF910895CF93DF93F4
:1005D000CDB7DEB70E94BC020E94C1060E94E006B1
:1005E0000E943E070E9479060E941A070E942C076B
:1005F0000E94C302DF91CF910895CF93DF93CDB7CF
:10060000DEB780915503813049F48091F2038F3F2A
:1006100029F08091F2038F5F8093F203DF91CF91F5
:100620000895CF93DF93CDB7DEB780915503813026
:1006300009F060C0F8948091F203882329F080913A
:10064000F20381508093F2038091F203882309F032
:1006500050C080915403882309F04BC08091EC0373
:10066000882F90E0FC01E15BFE4F80818093F103D5
:100670008091F103282F220F220F220F8091F10386
:10068000882F90E0FC01E351FC4F8081882F90E09F
:10069000FC01E15BFE4F8081820F80935A039091B1
:1006A0005A0380915B03981721F180915A03882F98
:1006B00090E0880F991FFC01EB57FA4F80819181E0
:1006C0009093EB038093EA038091DE039091DF0324
:1006D000A091E003B091E1030196A11DB11D8093AB
:1006E000DE039093DF03A093E003B093E1030E9445
:1006F0005C137894DF91CF910895CF93DF93CDB7BA
:10070000DEB780915503813059F4F89480915403F9
:100710008F3F29F0809154038F5F80935403789426
:10072000DF91CF910895CF93DF93CDB7DEB780915E
:1007300055038130C9F4F89480915403882399F0CB
:1007400080915403815080935403809154038823F3
:1007500041F48091F203882321F478940E94910758
:1007600003C0789401C07894DF91CF910895CF931E
:10077000DF93CDB7DEB722970FB6F894DEBF0FBE7A
:10078000CDBF809155038823E9F58091EC03882F34
:1007900090E0FC01E15BFE4F80818A838A81882F93
:1007A00090E0FC01E351FC4F8081882F90E0FC0138
:1007B000E15BFE4F808189838A81982F990F990F81
:1007C000990F8981890F80935A0380915A038093EE
:1007D0005B0380915A03882F90E0880F991FFC01DA
:1007E000EB57FA4F808191819093EB038093EA035A
:1007F0008091EA039091EB039093F4038093F303C9
:100800000E94C51222960FB6F894DEBF0FBECDBF70
:10081000DF91CF910895CF93DF93CDB7DEB782E01C
:1008200090E00E949811F89410925603109257038A
:10083000109258031092590378948DE390E00E942F
:100840009811F8948091560390915703A091580302
:10085000B09159038093E2039093E303A093E403E0
:10086000B093E50381E0809384057894DF91CF9184
:100870000895CF93DF93CDB7DEB722970FB6F894E4
:10088000DEBF0FBECDBF0E94B502809155038130FF
:1008900009F058C080915C0390915D039A8389832D
:1008A0004BC0F894E981FA81828593850097E9F13C
:1008B000E981FA81828593850197E981FA8193879D
:1008C0008287E981FA8182859385009771F5E981B4
:1008D000FA818485882F90E0887090700097F9F4F1
:1008E000E981FA8191898091EC03892B8093EC0353
:1008F000E981FA818785282F30E0E981FA818785AF
:10090000882F90E0FC01E351FC4F9081E981FA814E
:100910008089892BF901E351FC4F808306C0E9816E
:10092000FA8181E090E093878287E981FA81828170
:1009300093819A8389837894E981FA8185858C30C3
:1009400009F0AFCF22960FB6F894DEBF0FBECDBF31
:10095000DF91CF910895CF93DF93CDB7DEB78CEFC2
:1009600090E0DF91CF910895CF93DF93CDB7DEB7BD
:10097000DF91CF910895CF93DF93CDB7DEB72C975A
:100980000FB6F894DEBF0FBECDBF998788877B87EF
:100990006A874C87E885F9858181882F90E0FC0182
:1009A000E15BFE4F80818C838C81882F90E0FC017D
:1009B000E95BFE4F80818A838C81282F30E0888517
:1009C0009985820F931FFC0136968081882F90E0D5
:1009D000FC01E15BFE4F80818D838D81882F90E04B
:1009E000FC01E95BFE4F80818B838C81982F990FEE
:1009F000990F990F8D81890F89838C81482F50E041
:100A00008C81282F30E088859985820F931FFC0107
:100A100036968081982F8B8180958923282F888511
:100A20009985840F951FFC013696208388859985CA
:100A3000840F951FFC0136968081882351F4E88548
:100A4000F9858181982F8A8180958923E885F985A8
:100A500081838981882F90E0880F991FFC01EB57D3
:100A6000FA4F808191819F838E83EE81FF8113866F
:100A70001286EE81FF8117821682EE81FF818A85C0
:100A80009B8591878087EE81FF818485982F8C8557
:100A900080958923EE81FF818487EE81FF818485A3
:100AA0008823B1F49091EC038A81892B8093EC0325
:100AB0008C81282F30E08C81882F90E0FC01E3515D
:100AC000FC4F90818B81892BF901E351FC4F80838E
:100AD0008981882F90E02C960FB6F894DEBF0FBE68
:100AE000CDBFDF91CF910895CF93DF93CDB7DEB720
:100AF00022970FB6F894DEBF0FBECDBF9A838983CD
:100B0000E091F303F091F40389819A8197838683BE
:100B1000E091F303F091F4038785282F30E0E09112
:100B2000F303F091F4038785882F90E0FC01E351F3
:100B3000FC4F8081982FE091F303F091F4038089BA
:100B400080958923F901E351FC4F8083F901E3513A
:100B5000FC4F8081882361F4E091F303F091F4036A
:100B60008189982F90958091EC0389238093EC03E1
:100B7000E091F303F091F4038785482F50E0E09172
:100B8000F303F091F4038785282F30E089819A815F
:100B9000820F931FFC0136969081E091F303F09150
:100BA000F4038089292F282B89819A81840F951F2E
:100BB000FC0136962083E981FA819181E091F3036B
:100BC000F091F4038189892BE981FA81818322964E
:100BD0000FB6F894DEBF0FBECDBFDF91CF91089561
:100BE000CF93DF93CDB7DEB722970FB6F894DEBF71
:100BF0000FBECDBF9A838983E091F303F091F40394
:100C00008785482F50E0E091F303F091F403878546
:100C1000282F30E089819A81820F931FFC0136963C
:100C20008081982FE091F303F091F40380898095FF
:100C30008923282F89819A81840F951FFC0136967C
:100C4000208389819A81840F951FFC0136968081CB
:100C5000882371F4E981FA818181982FE091F3036F
:100C6000F091F403818980958923E981FA81818358
:100C7000E091F303F091F4031486E091F303F09113
:100C8000F4031782168222960FB6F894DEBF0FBEC9
:100C9000CDBFDF91CF910895CF93DF93CDB7DEB76E
:100CA00024970FB6F894DEBF0FBECDBF9C838B8315
:100CB000EB81FC8111828B819C8106969A838983CA
:100CC000E981FA81108289819A8101969A838983C8
:100CD000E981FA81108289819A8101969A838983B8
:100CE00024960FB6F894DEBF0FBECDBFDF91CF9133
:100CF0000895CF93DF93CDB7DEB726970FB6F8945C
:100D0000DEBF0FBECDBF85E794E09C838B838DE76C
:100D100094E09A8389831E821D8218C0EB81FC8136
:100D20001082EB81FC8189819A81958384838B81F8
:100D30009C8108969C838B8389819A8108969A83EB
:100D400089838D819E8101969E838D838D819E8175
:100D50008230910518F3EB81FC811082EB81FC81DC
:100D60001582148285E794E09093F0038093EF035B
:100D700026960FB6F894DEBF0FBECDBFDF91CF91A0
:100D80000895CF93DF93CDB7DEB71092F2031092A0
:100D900054031092E903109255031092DE0310924F
:100DA000DF031092E0031092E103109256031092B9
:100DB00057031092580310925903DF91CF91089571
:100DC000CF93DF93CDB7DEB724970FB6F894DEBF8D
:100DD0000FBECDBF1092EC038DEE93E09A83898312
:100DE0001C821B820DC0E981FA81108289819A815F
:100DF00001969A8389838B819C8101969C838B8346
:100E00008B819C818230910570F310925B0310926C
:100E10005A031092EB031092EA031092F40310921B
:100E2000F30324960FB6F894DEBF0FBECDBFDF915B
:100E3000CF910895CF93DF93CDB7DEB784E794E0E9
:100E4000E8EFF7E02CE0AC0160E070E0CF010E9439
:100E5000BF0EDF91CF910895CF93DF93CDB7DEB76B
:100E60008DED93E0ECE1F8E02BE0AC0160E070E0A8
:100E7000CF010E94BF0EDF91CF910895CF93DF93F2
:100E8000CDB7DEB725970FB6F894DEBF0FBECDBF46
:100E900010925D0310925C031D820DC08D81882F1E
:100EA00090E0880F991FFC01EB57FA4F11821082D6
:100EB0008D818F5F8D838D818D3080F38DE894E0FF
:100EC0009C838B8380EA94E09A8389831D8213C07C
:100ED000EB81FC8189819A81938382838B819C81C0
:100EE00043969C838B8389819A8143969A838983D5
:100EF0008D818F5F8D838D818C3050F3EB81FC81F0
:100F0000138212828DE894E09093E7038093E603C6
:100F100025960FB6F894DEBF0FBECDBFDF91CF91FF
:100F20000895CF93DF93CDB7DEB721970FB6F8942E
:100F3000DEBF0FBECDBFF8948091F203882309F085
:100F40004DC080915403882309F048C08091EC0380
:100F5000882F90E0FC01E15BFE4F808189838981CD
:100F6000282F220F220F220F8981882F90E0FC0169
:100F7000E351FC4F8081882F90E0FC01E15BFE4F44
:100F80008081820F80935A0390915A0380915B0372
:100F9000981721F180915A03882F90E0880F991FAC
:100FA000FC01EB57FA4F808191819093EB03809382
:100FB000EA038091DE039091DF03A091E003B091FA
:100FC000E1030196A11DB11D8093DE039093DF0321
:100FD000A093E003B093E1030E94F9127894219664
:100FE0000FB6F894DEBF0FBECDBFDF91CF9108954D
:100FF000CF93DF93CDB7DEB722970FB6F894DEBF5D
:101000000FBECDBF9A838983F89480915603909147
:101010005703A0915803B09159030196A11DB11D2A
:101020008093560390935703A0935803B0935903AA
:1010300078940E94CA02E8CFCF93DF93CDB7DEB792
:101040002B970FB6F894DEBF0FBECDBF9B878A8764
:1010500004C08AE790E00E9498118091840588235B
:10106000C1F38091E2039091E303A091E403B09176
:10107000E50324E630E040E050E0BC01CD010E94F1
:101080001514DA01C9018A839B83AC83BD83F8946C
:101090008091560390915703A0915803B091590342
:1010A00080939F059093A005A093A105B093A205FE
:1010B0008091560390915703A0915803B091590322
:1010C0008E839F83A887B987109256031092570387
:1010D000109258031092590378948A819B81AC81B5
:1010E000BD810097A105B105E1F08E819F81A885A2
:1010F000B9852A813B814C815D81BC01CD010E9473
:101100001514DA01C901982F84E6891B8983898126
:10111000882324F089818093E8031BC01092E803A0
:1011200018C01092E8038091E2039091E303A0912C
:10113000E403B091E50324E630E040E050E0BC0178
:10114000CD010E941514DA01C9018A839B83AC8307
:10115000BD830E94AE028DE390E00E94981197CF6C
:10116000AF92BF92CF92DF92EF92FF920F931F93B5
:10117000CF93DF93CDB7DEB763970FB6F894DEBF9A
:101180000FBECDBF8B837D836C835F834E83398796
:101190002887EA86FB860C871D87DF86CE86B98A7C
:1011A000A88AF8948091E6039091E7039A83898353
:1011B00089819A81009709F4A0C0E981FA8182812E
:1011C00093819093E7038093E6037894E981FA8111
:1011D0008C819D8191838083E981FA818B818587D0
:1011E000E981FA811486E981FA8113861286E98100
:1011F000FA81128A8B81869586958695E981FA8196
:101200008787E981FA818785882F90E0FC01E95B77
:10121000FE4F8081E981FA81818B8B818770E98122
:10122000FA818687E981FA818685882F90E0FC0122
:10123000E95BFE4F8081E981FA81808BE981FA8147
:1012400017821682E981FA811186108689819A8136
:101250000E94D10289819A810E947D02F8948B813B
:10126000882F90E0880F991FFC01EB57FA4F898176
:101270009A819183808380915C0390915D03E981E1
:10128000FA8193838283E981FA81158214828091A5
:101290005C0390915D03009741F0E0915C03F09155
:1012A0005D0389819A819583848389819A81909352
:1012B0005D0380935C03E981FA8191898091EC035D
:1012C000892B8093EC03E981FA818785282F30E010
:1012D000E981FA818785882F90E0FC01E351FC4F7A
:1012E0009081E981FA818089892BF901E351FC4FD2
:1012F000808378941B8A1A8A05C0789486E490E0EB
:101300009B8B8A8B8A899B8963960FB6F894DEBF84
:101310000FBECDBFDF91CF911F910F91FF90EF9046
:10132000DF90CF90BF90AF900895CF93DF93CDB76C
:10133000DEB726970FB6F894DEBF0FBECDBF9C83F5
:101340008B838091F203882319F01E821D8232C0A4
:10135000F8948091EF039091F0039A8389838091B0
:10136000EF039091F003009751F0E091EF03F091BB
:10137000F003848195819093F0038093EF03789438
:1013800089819A81009791F0E981FA8181E08083D7
:10139000E981FA8113821282E981FA818B819C8131
:1013A0009583848389819A810E944C0689819A81E0
:1013B0009E838D838D819E8126960FB6F894DEBF25
:1013C0000FBECDBFDF91CF910895CF93DF93CDB7FF
:1013D000DEB72A970FB6F894DEBF0FBECDBF9C8351
:1013E0008B837E836D8358874F838091F20388239C
:1013F00039F0EF81F88582E080831A86198665C00E
:10140000F894EB81FC81848195819A838983898119
:101410009A81009769F0EB81FC811582148278949F
:10142000EF81F885108289819A819A8789874DC0DA
:10143000A091F303B091F403E091F303F091F4036E
:1014400084858260FD018487E091F303F091F403C9
:101450008D819E81938782878B819C810E947405F8
:1014600078940E949107F894E091F303F091F403CB
:10147000808591859A83898389819A810097D1F0AB
:10148000E091F303F091F40311861086E091F303E9
:10149000F091F4031486E091F303F091F4031782C2
:1014A00016827894EF81F885108289819A819A87D3
:1014B00089870BC08B819C810E94F0057894EF8115
:1014C000F8858AE080831A86198689859A852A9606
:1014D0000FB6F894DEBF0FBECDBFDF91CF91089558
:1014E000CF93DF93CDB7DEB726970FB6F894DEBF64
:1014F0000FBECDBF9A8389837C836B83F894E98187
:10150000FA818181882379F08B819C8129813A81BC
:1015100042E0BC01C9010E94BB0478940E9491077B
:101520001E821D8215C0E981FA8184819581009710
:1015300031F0789484E190E09E838D8309C0E98145
:10154000FA818B819C819583848378941E821D828D
:101550008D819E8126960FB6F894DEBF0FBECDBF5B
:10156000DF91CF910895CF93DF93CDB7DEB7279763
:101570000FB6F894DEBF0FBECDBF8B837D836C8327
:101580008091F203882339F0EC81FD818DE880831E
:101590001F821E8267C0F8948B81882F90E0880F8D
:1015A000991FFC01EB57FA4F80819181009741F020
:1015B0007894EC81FD8188E280831F821E8252C074
:1015C0008B81882F90E0880F991FFC01EB57FA4F11
:1015D00081E090E0918380838091EF039091F0030C
:1015E0009A83898389819A810097A1F48B81882FBE
:1015F00090E0880F991FFC01EB57FA4F118210827F
:101600007894EC81FD8184E0808389819A819F8335
:101610008E8328C0E091EF03F091F00384819581DF
:101620009093F0038093EF037894E981FA8184E04A
:1016300080838B81882F90E0982F88278F6FE98196
:10164000FA8193838283E981FA81158214828981E8
:101650009A810E944C06EC81FD81108289819A81D9
:101660009F838E838E819F8127960FB6F894DEBF6D
:101670000FBECDBFDF91CF910895CF93DF93CDB74C
:10168000DEB72B970FB6F894DEBF0FBECDBF9F839A
:101690008E83798768875B874A878091F2038823E6
:1016A00029F0EA85FB8582E080831FC1F894EE81F2
:1016B000FF81828193818F3F39F5EE81FF818281A5
:1016C00093818070EE81FF8193838283EE81FF811D
:1016D00022813381E091F303F091F4038585882F13
:1016E00090E0822B932BEE81FF8193838283809104
:1016F000F3039091F403EE81FF81958384837894C2
:10170000EA85FB851082F1C0EE81FF8182819381A1
:10171000892F99278D83EE81FF81828193818C832C
:10172000EE81FF81848195819A838983E981FA81A1
:1017300095858D81981709F49DC0E091F303F09190
:10174000F40395858C81981708F094C0E981FA819B
:101750008785882F90E0FC01E351FC4F9081E9815F
:10176000FA8180898923882359F1E981FA81878563
:10177000282F30E0E981FA818785882F90E0FC01ED
:10178000E351FC4F8081982FE981FA81808980950F
:101790008923F901E351FC4F8083F901E351FC4FA8
:1017A0008081882351F4E981FA818189982F90956D
:1017B0008091EC0389238093EC0381E08B8301C04B
:1017C0001B82E981FA818D818587E981FA8185858E
:1017D000869586958695E981FA818787E981FA81E0
:1017E0008785882F90E0FC01E95BFE4F8081E981CD
:1017F000FA81818BE981FA8185858770E981FA8197
:101800008687E981FA818685882F90E0FC01E95B73
:10181000FE4F8081E981FA81808B8B818130F1F4E8
:10182000E981FA8191898091EC03892B8093EC0303
:10183000E981FA818785282F30E0E981FA8187855F
:10184000882F90E0FC01E351FC4F9081E981FA81FF
:101850008089892BF901E351FC4F80838D81882F8A
:1018600090E0880F991FFC01EB57FA4F89819A810C
:1018700091838083A091F303B091F403E091F3038B
:10188000F091F40384858061FD018487E091F30386
:10189000F091F40388859985938782878E819F8153
:1018A0000E94740578940E949107F894E091F303E4
:1018B000F091F4038485882F90E0807190700097F8
:1018C00051F08E819F810E94F0057894EA85FB8516
:1018D0008AE080830AC0E091F303F091F403178259
:1018E00016827894EA85FB8510822B960FB6F894C1
:1018F000DEBF0FBECDBFDF91CF910895CF93DF93B1
:10190000CDB7DEB726970FB6F894DEBF0FBECDBFBA
:101910009C838B838091F203882329F085E090E0FB
:101920009E838D831BC1F894EB81FC81828193811E
:10193000892F99278A83EB81FC8182819381898316
:10194000E091F303F091F40395858A81981771F083
:10195000E091F303F091F40395858981981731F0B4
:101960007894E8E7F0E0FE83ED83F8C0E091F303BC
:10197000F091F40395858A81981709F09CC0E09155
:10198000F303F091F4038785282F30E0E091F3030F
:10199000F091F4038785882F90E0FC01E351FC4F20
:1019A0008081982FE091F303F091F4038089809572
:1019B0008923F901E351FC4F8083F901E351FC4F86
:1019C0008081882361F4E091F303F091F40381892D
:1019D000982F90958091EC0389238093EC03E091FC
:1019E000F303F091F40389818587E091F303F0918B
:1019F000F40389818695869586958787A091F30360
:101A0000B091F403E091F303F091F4038785882FFC
:101A100090E0FC01E95BFE4F8081FD01818BE0914C
:101A2000F303F091F403898187708687A091F30313
:101A3000B091F403E091F303F091F4038685882FCD
:101A400090E0FC01E95BFE4F8081FD01808BE0911D
:101A5000F303F091F40391898091EC03892B809337
:101A6000EC03E091F303F091F4038785282F30E035
:101A7000E091F303F091F4038785882F90E0FC0157
:101A8000E351FC4F9081E091F303F091F4038089DE
:101A9000892BF901E351FC4F80838981882F90E0E5
:101AA0002091F3033091F403880F991FFC01EB5749
:101AB000FA4F318320838A81882F90E0880F991F05
:101AC000FC01EB57FA4F81E090E091838083EB813A
:101AD000FC818181882391F18B819C8140E160E0D0
:101AE00070E00E94BB048983EB81FC818281938139
:101AF0008070EB81FC8193838283EB81FC81228166
:101B000033818981882F90E0822B932BEB81FC819C
:101B1000938382838981882F90E0880F991FFC012D
:101B2000EB57FA4F80819181EB81FC81958384830F
:101B300078940E9491071E821D8210C0EB81FC8167
:101B4000828193818F6FEB81FC8193838283EB8110
:101B5000FC811582148278941E821D828D819E8163
:101B600026960FB6F894DEBF0FBECDBFDF91CF91A2
:101B70000895CF93DF93CDB7DEB726970FB6F894CD
:101B8000DEBF0FBECDBF9C838B838091F203882381
:101B900019F01E821D8232C0F8948091EF0390915B
:101BA000F0039A8389838091EF039091F00300976B
:101BB00051F0E091EF03F091F003848195819093CF
:101BC000F0038093EF03789489819A81009791F0D4
:101BD000E981FA8183E08083E981FA818B819C81AC
:101BE00093838283E981FA811582148289819A81A3
:101BF0000E944C0689819A819E838D838D819E816E
:101C000026960FB6F894DEBF0FBECDBFDF91CF9101
:101C10000895CF93DF93CDB7DEB726970FB6F8942C
:101C2000DEBF0FBECDBF9A8389837C836B835E83C7
:101C30004D838091F203882329F0ED81FE8182E0BB
:101C4000808350C0F894E981FA8182819381009762
:101C500071F0E981FA81828193810197E981FA81AA
:101C6000938382837894ED81FE8110823BC0A091A2
:101C7000F303B091F403E091F303F091F40384854E
:101C80008160FD018487E091F303F091F4038B817F
:101C90009C819387828789819A810E9474057894B8
:101CA0000E949107F894E091F303F091F403848586
:101CB000882F90E081709070882351F089819A81FB
:101CC0000E94F0057894ED81FE818AE080830AC04D
:101CD000E091F303F091F403178216827894ED817A
:101CE000FE81108226960FB6F894DEBF0FBECDBFE0
:101CF000DF91CF910895CF93DF93CDB7DEB72497CF
:101D00000FB6F894DEBF0FBECDBF9A838983F894D7
:101D1000E981FA818181882369F089819A8141E092
:101D200060E070E00E94BB0478940E9491071C82DE
:101D30001B821AC0E981FA81828193812FEF8F3F44
:101D4000920769F0E981FA81828193810196E981A4
:101D5000FA819383828378941C821B8205C07894D5
:101D600082E390E09C838B838B819C8124960FB6C9
:101D7000F894DEBF0FBECDBFDF91CF910895AF9233
:101D8000BF92CF92DF92EF92FF920F931F93CF9368
:101D9000DF93CDB7DEB72C970FB6F894DEBF0FBE3A
:101DA000CDBF9D838C837F836E83598748872A8725
:101DB000F8948A85882F90E0880F991FFC01EB57D3
:101DC000FA4F80819181009709F050C08A85882F51
:101DD00090E0880F991FFC01EB57FA4F81E090E0EB
:101DE000918380837894888599856E817F81EC8149
:101DF000FD8120E030E0AC01CF010E9429019B83EE
:101E00008A838A819B81AA24BB24CC24DD24EE24EE
:101E1000FF24870120E030E040E050E0BC018A85EB
:101E20000E94B00889838981882371F4F894809195
:101E3000E9038F5F8093E9037894809155038130A3
:101E400079F40E9491070CC0F8948A85882F90E05D
:101E5000880F991FFC01EB57FA4F1182108278947A
:101E60008981282F30E03C872B8705C0789488E251
:101E700090E09C878B878B859C852C960FB6F89479
:101E8000DEBF0FBECDBFDF91CF911F910F91FF90AD
:101E9000EF90DF90CF90BF90AF900895CF93DF93F6
:101EA000CDB7DEB728970FB6F894DEBF0FBECDBF13
:101EB0008E838091F203882329F08FE390E0988746
:101EC0008F83F6C0F8948E818F3F31F4E091F30355
:101ED000F091F40385858E838E81882F90E0880FA2
:101EE000991FFC01EB57FA4F808191819B838A8374
:101EF0008A819B81009709F4D6C0EA81FB8187859E
:101F0000282F30E0EA81FB818785882F90E0FC0153
:101F1000E351FC4F8081982FEA81FB818089809575
:101F20008923F901E351FC4F8083F901E351FC4F10
:101F30008081882351F4EA81FB818189982F9095D3
:101F40008091EC0389238093EC03EA81FB818681F5
:101F500097819D838C838C819D810097A1F1EA817B
:101F6000FB818785482F50E0EA81FB818785282FF8
:101F700030E08C819D81820F931FFC013696808119
:101F8000982FEA81FB81808980958923282F8C8175
:101F90009D81840F951FFC01369620838C819D8145
:101FA000840F951FFC0136968081882361F4EC81B3
:101FB000FD818181982FEA81FB8181898095892328
:101FC000EC81FD818183EA81FB8113861286EA819F
:101FD000FB811486809154038F3F29F08091540334
:101FE0008F5F8093540378940E94B404F894809196
:101FF0005403882329F08091540381508093540323
:102000008A819B810E9492028091E9038150809392
:10201000E9038E81882F90E0880F991FFC01EB5710
:10202000FA4F11821082EA81FB81848195810097A9
:1020300081F4EA81FB810280F381E02D1582148214
:10204000EA81FB818281938190935D0380935C039D
:1020500016C0EA81FB81A481B581EA81FB8182817E
:102060009381FD0193838283EA81FB81A281B38105
:10207000EA81FB8184819581FD0195838483809130
:10208000E6039091E703EA81FB81938382838A814F
:102090009B819093E7038093E60378940E949107D5
:1020A00018861F8205C078948CE390E098878F8310
:1020B0008F81988528960FB6F894DEBF0FBECDBFEE
:1020C000DF91CF910895CF93DF93CDB7DEB72797F8
:1020D0000FB6F894DEBF0FBECDBF8D838D818F3FCD
:1020E00071F4F894E091F303F091F40382898C8306
:1020F00078948C81282F30E03F832E831FC0F89482
:102100008D81882F90E0880F991FFC01EB57FA4FC3
:10211000808191819A83898389819A81009731F0A6
:10212000E981FA818EE3828B1B8202C08BE08B8374
:1021300078948B81282F30E03F832E838E819F817E
:1021400027960FB6F894DEBF0FBECDBFDF91CF91BB
:102150000895CF93DF93CDB7DEB725970FB6F894E8
:10216000DEBF0FBECDBF8B83F8948B81882F90E0AC
:10217000880F991FFC01EB57FA4F808191819A8358
:10218000898389819A81009731F4789484E690E07C
:102190009D838C8346C0E981FA818485882F90E0F5
:1021A000887090700097C1F1E981FA818485877FFA
:1021B000E981FA818487E981FA818485882341F560
:1021C000E981FA8182859385009711F5E981FA8189
:1021D00091898091EC03892B8093EC03E981FA814A
:1021E0008785282F30E0E981FA818785882F90E064
:1021F000FC01E351FC4F9081E981FA818089892BB0
:10220000F901E351FC4F808378940E94910701C04B
:1022100078941D821C8205C0789485E690E09D83A9
:102220008C838C819D8125960FB6F894DEBF0FBEFE
:10223000CDBFDF91CF910895CF93DF93CDB7DEB7B8
:1022400026970FB6F894DEBF0FBECDBF8C83F894EF
:102250008C818F3F49F4E091F303F091F40385857D
:102260008C8381E08B830CC0E091F303F091F40345
:1022700095858C81981719F481E08B8301C01B82AE
:102280008C81882F90E0880F991FFC01EB57FA4F43
:10229000808191819A83898389819A81009731F421
:1022A00078948AE590E09E838D8337C0E981FA8136
:1022B0008785282F30E0E981FA818785882F90E093
:1022C000FC01E351FC4F8081982FE981FA818089DC
:1022D00080958923F901E351FC4F8083F901E35193
:1022E000FC4F8081882351F4E981FA818189982FFC
:1022F00090958091EC0389238093EC03E981FA8126
:1023000084858860E981FA81848778948B81813023
:1023100011F40E9491071E821D828D819E81269656
:102320000FB6F894DEBF0FBECDBFDF91CF910895F9
:10233000CF93DF93CDB7DEB722970FB6F894DEBF09
:102340000FBECDBF9A83898389819A81009709F452
:102350003CC0F894E091F303F091F4038785282FB3
:1023600030E0E091F303F091F4038785882F90E04B
:10237000FC01E351FC4F8081982FE091F303F09131
:10238000F403808980958923F901E351FC4F808310
:10239000F901E351FC4F8081882361F4E091F3035C
:1023A000F091F4038189982F90958091EC03892313
:1023B0008093EC03E091F303F091F40389819A8117
:1023C0009387828778940E94910722960FB6F8949B
:1023D000DEBF0FBECDBFDF91CF910895EF92FF9288
:1023E0000F931F93CF93DF93CDB7DEB72D970FB623
:1023F000F894DEBF0FBECDBF8F83688749873B87C8
:102400002A878F81882359F48885882341F4898518
:10241000882329F48A859B85009709F4A3C08885C1
:102420008C3328F081E590E09D878C879FC089855B
:102430008C3328F082E590E09D878C8797C08A8551
:102440009B8523E0883E920728F083E590E09D87F6
:102450008C878CC08F81882F90E0A0E0B0E020E1D5
:102460003EE040E050E0BC01CD010E94F6137B014C
:102470008C018885882F90E0A0E0B0E02CE330E06C
:1024800040E050E0BC01CD010E94F613DC01CB011D
:10249000A8019701280F391F4A1F5B1F8985882FC4
:1024A00090E0A0E0B0E0820F931FA41FB51F2DE3C2
:1024B00030E040E050E0BC01CD010E94F6137B010A
:1024C0008C018A859B85CC01A0E0B0E02DE330E053
:1024D00040E050E0BC01CD010E94F613DC01CB01CD
:1024E00088519E4FAF4FBF4F28EE33E040E050E0A1
:1024F000BC01CD010E941514DA01C9018E0D9F1D8A
:10250000A01FB11F8B839C83AD83BE838B819C8175
:10251000AD81BE81CD01AA27BB279A8389838B8198
:102520009C81AD81BE81A070B0708B839C83AD8394
:10253000BE838B819C810E9498110DC080E090E841
:102540000E94981180E090E80E94981189819A81F8
:1025500001979A83898389819A81009779F71D86EB
:102560001C8604C084E590E09D878C878C859D85C2
:102570002D960FB6F894DEBF0FBECDBFDF91CF9181
:102580001F910F91FF90EF9008950E94A702009174
:102590005503039500935503E091EA03F091EB0393
:1025A000C191CDBFD191DEBF0F910FBF0F910BBF76
:1025B000FF91EF91DF91CF91BF91AF919F918F915B
:1025C0007F916F915F914F913F912F911F910F914B
:1025D000FF90EF90DF90CF90BF90AF909F908F9043
:1025E0007F906F905F904F903F902F901F900F9033
:1025F00008950F921F922F923F924F925F926F9287
:102600007F928F929F92AF92BF92CF92DF92EF9282
:10261000FF920F931F932F933F934F935F936F936B
:102620007F938F939F93AF93BF93CF93DF93EF935A
:10263000FF930BB70F930FB70F93E091F303F09154
:10264000F403CDB7C193DEB7D1930E94A7020091E6
:102650005A0300935B03E091EA03F091EB03E093EC
:10266000F303F093F403C191CDBFD191DEBF0F917D
:102670000FBF0F910BBFFF91EF91DF91CF91BF91F2
:10268000AF919F918F917F916F915F914F913F910A
:102690002F911F910F91FF90EF90DF90CF90BF90FF
:1026A000AF909F908F907F906F905F904F903F90F2
:1026B0002F901F900F9008950E94A70200915A0337
:1026C00000935B03E091EA03F091EB03E093F303E3
:1026D000F093F403C191CDBFD191DEBF0F910FBF35
:1026E0000F910BBFFF91EF91DF91CF91BF91AF9110
:1026F0009F918F917F916F915F914F913F912F911A
:102700001F910F91FF90EF90DF90CF90BF90AF900F
:102710009F908F907F906F905F904F903F902F9001
:102720001F900F9008950F921F922F923F924F92F9
:102730005F926F927F928F929F92AF92BF92CF9251
:10274000DF92EF92FF920F931F932F933F934F933C
:102750005F936F937F938F939F93AF93BF93CF9329
:10276000DF93EF93FF930BB70F930FB700680F93AF
:102770000091F20303950093F203013041F4CDB7C9
:10278000DEB7E091F303F091F403C193D19300E03D
:1027900002BFF0E01F2E78940E94390400000E94CE
:1027A00011030F910FBF0F910BBFFF91EF91DF91BD
:1027B000CF91BF91AF919F918F917F916F915F91D9
:1027C0004F913F912F911F910F91FF90EF90DF90CC
:1027D000CF90BF90AF909F908F907F906F905F90C1
:1027E0004F903F902F901F900F900895629FD001BF
:1027F000739FF001829FE00DF11D649FE00DF11DBC
:10280000929FF00D839FF00D749FF00D659FF00D6A
:102810009927729FB00DE11DF91F639FB00DE11D57
:10282000F91FBD01CF0111240895A1E21A2EAA1BA0
:10283000BB1BFD010DC0AA1FBB1FEE1FFF1FA21770
:10284000B307E407F50720F0A21BB30BE40BF50B6D
:10285000661F771F881F991F1A9469F760957095F6
:10286000809590959B01AC01BD01CF010895FFCFEC
:1028700068656C6C6F20616F772061726520796F7D
:102880007520616C706861626574732061206220DC
:1028900063206420652066206720680D0061616107
:1028A0006161616161616161616161616161616118
:1028B00061616161610D0001020408102040800027
:1028C00000010002000100030001000200010004F9
:1028D00000010002000100030001000200010005E8
:1028E00000010002000100030001000200010004D9
:1028F00000010002000100030001000200010006C7
:1029000000010002000100030001000200010004B8
:1029100000010002000100030001000200010005A7
:102920000001000200010003000100020001000498
:102930000001000200010003000100020001000785
:102940000001000200010003000100020001000478
:102950000001000200010003000100020001000567
:102960000001000200010003000100020001000458
:102970000001000200010003000100020001000646
:102980000001000200010003000100020001000438
:102990000001000200010003000100020001000527
:1029A0000001000200010003000100020001000418
:1029B000000100020001000300010002000100000C
:00000001FF
